:10000000E01F0010592400009124000095240000F6
:1000100000000000000000000000000000000000E0
:100020000000000000000000000000009924000013
:1000300000000000000000009D24000009050000F1
:10004000A5240000A9240000AD240000B124000074
:10005000B5240000B9240000BD240000C124000024
:10006000C5240000C9240000CD240000D1240000D4
:10007000D5240000D9240000DD240000E124000084
:1000800081030000E9240000ED240000F1240000B9
:10009000F5240000F9240000FD24000001250000E3
:1000A00005250000092500000D2500001125000090
:1000B00015250000192500001D2500002125000040
:0402FC00FFFFFFFF02
:10030000402292029A1A92467047C046174B002B21
:1003100000D1134B9D46FFF7F3FF00218B460F469C
:100320001348144A121A03F04BF90E4B002B00D05D
:1003300098470D4B002B00D0984700200021040067
:100340000D000D48002802D00C4800E000BF03F06B
:1003500005FA2000290002F07DFB02F01DFEC046D8
:10036000000008000000000000000000E01F001076
:10037000640000106802001000000000000000008F
:1003800070B5164DAB6EDB0027D5154C280021004B
:1003900000F0F4FD22000021104800F015FE0028B6
:1003A000F8D080235B05AB6623680E480E4958439E
:1003B00002F018F90D4B0200A168180001F0AAFD27
:1003C0000949206802F00EF96422424301212261AA
:1003D00063690748D2B200F09DFE70BD00C00140C5
:1003E00064000010E30C0000FF0F0000F43A00006E
:1003F000004000508E2373B50125022100260F4CCA
:100400009B00E2586846AA43E250E2588A43E25011
:100410000B4B1E606B461E710A4B009300F09CFB59
:10042000C020800000F084FCFF22074B1E60A36FF9
:1004300093431D43A56700F029F973BD0080044074
:1004400040800440001BB700E0800440012330B529
:1004500087B001930023154C01A9050020008B8073
:1004600000F0EAFC032303930493114B200003A93B
:10047000059300F03DFD8023A2681B061343A36093
:100480008023A268DB04134329002000A36000F04E
:1004900075FD2A000021054800F096FD0028F8D0DF
:1004A0002900024800F06AFD07B030BD00C00140DD
:1004B000010000017FB580230126104ADB01D16FC6
:1004C000E1250B43D3670E4B2D021E6000F00AFBA3
:1004D0000400684601F034F902236A46FF33694696
:1004E000938008482200009501F082F9320029002B
:1004F0002300002001F0D5FB7FBDC04604800440EE
:1005000094800440004006408023034ADB04916845
:100510000B4393607047C04600C00140F8B580238C
:10052000154CDB02E26F102713438022E367E36F71
:10053000124E134D1343E367280077640022012114
:1005400000F052FC280037610422002100F04CFC2E
:1005500000238021F36328000122890100F053FC6D
:10056000776528001B22202100F03EFC8022E36FEB
:100570009343E367F8BDC046048004400040044054
:1005800000C00040802310B501240A4ADB01D16F6E
:1005900003200B43D367084B1C6000F019FC00F0EC
:1005A0003BFAE121030022004902002001F079FB1F
:1005B00010BDC04604800440948004408E23F7B5EB
:1005C000012502210027114C9B00E258104EAA433E
:1005D000E250E25868468A43E250E2581E318A43AC
:1005E000E2500C4B1F606B4600961F7100F0B4FA8E
:1005F000380000F09DFBFF22074B1F60A36F934361
:100600001D43064BA5671E60F7BDC0460080044031
:10061000001BB70040800440E08004400000001050
:1006200010B5FFF7CBFF10BD8E23F7B501250221D2
:100630000027114C9B00E258104EAA43E250E258AA
:1006400068468A43E250E2581E318A43E2500C4B1E
:100650001F606B4600961F7100F07EFAC02080007C
:1006600000F066FBFF22074B1F60A36F93431D43FF
:10067000054BA5671E60F7BD0080044000366E0183
:1006800040800440E08004400000001010B51E4C83
:100690000020636ADB051B0F013B0E2B02D81B4AAF
:1006A0009B0098580322616A236F1340022B11D0DC
:1006B000934216D0012B24D1206C10400338431EE6
:1006C0009841134B40421840A16F01F08BFF114C31
:1006D000206010BD1F2319400131490001F082FF45
:1006E000F2E7A268206C1F211840033843425841AA
:1006F000094B40421840064B0A40C0180132504393
:10070000E2E70348E0E7C046008004406C3A00009E
:10071000001BB7000000001000E548FF704710B54F
:10072000044B054A9360054B054A1A60FFF7F6FF34
:1007300010BDC0460000000000ED00E00000001009
:10074000001BB700431E70B55B184D420C002B40D8
:10075000984201D9002070BD05225242521A9A4295
:10076000F8D3081DC01802F02BFC0028F2D0033487
:1007700023181D40034A2B1F281A58801A8028006E
:10078000E9E7C04639300000031F054A198810B553
:10079000914203D15B88C01A02F01CFC10BDC04618
:1007A000393000000A0010B500280BD000231900D2
:1007B00002F0E8F90023044A02F0AEF8001C013808
:1007C0000028FCD110BDC04600093D004023044A6A
:1007D00010B5D16F0A200B43D36700F0F9FA10BDB2
:1007E0000480044070B54024104DEE6F3443EC6734
:1007F00001249440220080241E788D00A401002E44
:1008000004D145192B5993432B5170BD5B78002BB4
:1008100009D18A231B01C91889000A5040190359BC
:1008200013430351F1E78823F4E7C04604800440F2
:10083000EFF3108172B60720064A136883431360F2
:10084000054A033813698343136130BF81F310886D
:100850007047C0460000024000ED00E010B5EFF325
:10086000108172B607230C4C22689A43063B13434F
:100870008C222360094C9200A35883430420A35088
:10088000074B1A6902431A6130BF1A6982431A6121
:1008900081F3108810BDC046000002400080044073
:1008A00000ED00E010B5EFF3108172B607230C4C99
:1008B00022689A43053B13438C222360094C920023
:1008C000A35883430420A350074B1A6902431A61BB
:1008D00030BF1A6982431A6181F3108810BDC04687
:1008E000000002400080044000ED00E0EFF31081C2
:1008F00072B60F23084802689A430C3B1343036007
:100900000420064B1A6902431A6130BF1A698243F8
:100910001A6181F3108870470000024000ED00E08A
:1009200030B50E4A172811D9050001238121183D41
:10093000AB408900545823435350002805DB1F2344
:1009400018401E3B8340064A136030BD01238521B9
:1009500083408900545823435350F0E700800440FB
:1009600000E100E010B5002809DB1F22012302404E
:1009700093400B4AD367BFF34F8FBFF36F8F094B81
:10098000172808D98124A4001A5918380121814058
:100990008A431A5110BD8524A4001A59F6E7C046AF
:1009A00004E100E00080044003688B4303600368B7
:1009B0000B43036003681942FCD07047004870473E
:1009C000001BB7008E23044A9B00D35800209B06CF
:1009D00001D4024B18687047008004409400001056
:1009E0000A4B10B5186C03231840012807D0984211
:1009F00008D043425841064B4042184010BDFFF713
:100A0000E1FFFBE7034B1868F8E7C04600800440AD
:100A1000001BB7009400001010B50D4C0020236F90
:100A2000032B06D8180001F0D3FD10020508FFF7CC
:100A3000D7FF10BD074B5868FBE7FFF7D1FF1F2218
:100A4000A368134001335843F3E70348F1E7C04676
:100A50000080044094000010001BB7000F4B10B53D
:100A60001C680F4B00201B68E4B2032B06D818004B
:100A700001F0AEFD12020C0FFFF7A4FF002C03D013
:100A8000210001F0AFFD0400200010BD054B5868A7
:100A9000F4E7FFF7C1FFF1E70348EFE7E880044020
:100AA000E080044094000010001BB70010B5FFF771
:100AB000B3FF0A4BFF241A681300234022420BD0D5
:100AC000074A010E1268000222400132FF325A43E7
:100AD000002301F021FF0300180010BD94800440A2
:100AE000F480044010B5FFF7E1FF10BD10B5FFF72B
:100AF000DDFF10BD10B5FFF7D9FF10BD10B50728F9
:100B000021D801F065FD060E2004111720140F48AE
:100B100010BDFFF781FF0E4B996FC9B201F062FD66
:100B2000F6E7FFF779FFF3E70A4B1868F0E7094BA0
:100B30005868EDE7FFF754FF1F22054B9B681340F1
:100B400001335843E4E70020E2E7C046001BB7004A
:100B500000800440940000108E22802370B51F4C4A
:100B60009200A15806000B430321A350236C226C72
:100B70008B43134302791A4813432364FFF714FF8E
:100B8000FFF72EFF366801000500300001F02AFD56
:100B9000144A0023964208D8134A0133964204D8D7
:100BA0000023124AB2425B4102331F26A168421E53
:100BB00032406036B1430A435B0113438E228021E9
:100BC000A3609200A3588B43A3500123E2681A420A
:100BD000FCD06843064B986070BDC046008004405E
:100BE00044800440802FA604C0175302E08B2901E3
:100BF000940000101821074A10B5D36A064C8B43A5
:100C0000D362E022054952008B5823408B50044B9D
:100C1000186010BD00400440FFFDFFFF00C0004011
:100C2000940000101821104A10B5936B04008B43F8
:100C30009363E02240200D4952008B5883438B5030
:100C40000B4BC03A196AFF3A0A438E211A62890097
:100C50005A5820388243DA305A5040000549FFF78D
:100C6000A1FD054B1C6010BD0040044000C00040C9
:100C70000080044080C3C901940000101821154B66
:100C800010B55A6B04008A435A639A6BC0208A439A
:100C90009A63E022104952008B5883438B500F49CE
:100CA000BD380B6A0A6A834313430D4A1D30A242C2
:100CB00092415242520013438E220B6292008B5893
:100CC0008343DA308B5040000649FFF76BFD064B3B
:100CD0001C6010BD0040044000C000400080044083
:100CE000C0E1E40080C3C9019400001070B5F02594
:100CF0000D4CC20C636A6D005B0A2A405B021A430A
:100D0000C23D4B08FF3D013B2B4013438E226362E3
:100D10009200A3582135AB430002A350000A01F012
:100D200061FC024B586070BD0080044094000010CC
:100D300010B503240949020A0B6F23409A420BD0D5
:100D4000C0B2002808D10B6F2240A34313430B67A6
:100D500003480121FFF728FE10BDC0460080044073
:100D600074800440F8B50400FFF756FE114B0600EE
:100D70001B685C43211E1BD00021A04218D3210018
:100D800001F030FC0021012812D80B0022000D00D8
:100D90003400FF27A41A9D41074829020760200E4E
:100DA0000143200201F0B8FD0121044B38401860D6
:100DB0000800F8BD94800440F0800440F4800440B2
:100DC00010B501210148FFF7EFFD10BDE48004409C
:100DD00001228240034B59689143596059680A4384
:100DE0005A60704700800440032310B5FF240B4075
:100DF000DB009C409A408908890040180168A143A3
:100E00000A43026010BD002A07D0002904DBE0225B
:100E1000520083588B43835070470029FCDBE0234A
:100E20005B00C2581143C150F6E7890093B24018E5
:100E3000120D80180360704780230E4A10B5D46FDE
:100E40005B042343D367002343660A790B68DBB254
:100E5000002A02D08022D200134320220360C36EF6
:100E60009343C3664B79C46E5B0113402343C3664F
:100E700010BDC0460480044010B50822002102F0D5
:100E80009FFB10BD024A0349D36F0B40D3677047E5
:100E900004800440FFFFFFFEF8B50400FF2725682B
:100EA00023680800BB4323600E4901F09BFB2668C2
:100EB00001383840304380262060962023680A4A53
:100EC000F60513402360236840003343236007493D
:100ED000FFF768FC236800202560334200D1012021
:100EE000F8BDC04620A10700FFFBFFFF80C3C9017A
:100EF000E0224B68D2011B0313400A681205120D51
:100F000013430A7A012A02D18022D20213434A7A79
:100F1000002A02D0802212031343CA7A012A02D186
:100F20008022D20513438A7A002A02D080225205F9
:100F3000134383607047E0224B68D2011B031340C8
:100F40000A681205120D13430A7A012A02D180227F
:100F5000D20213434A7A002A02D08022120313439A
:100F6000CA7A012A02D18022D20513438A7A002A42
:100F700002D0802252051343C360704703220069E8
:100F800003041B0D0B60030C13400B71830C134007
:100F90004B7183001B0F8B604300DB0FC00F0B7383
:100FA00070470322406903041B0D0B60030C1340C0
:100FB0000B71830C13404B7183001B0F8B6043003C
:100FC000DB0FC00F0B7370470831890008580321ED
:100FD00003041B0D1360030C0B401371830C0B40B7
:100FE000537183001B0F93604300DB0FC00F13731B
:100FF0007047C046F7B5002501270B4E0B4B3468F0
:101000001B68234001933C4205D0094BAA00D358EA
:10101000002B00D09847640802D00135082DF2D18A
:10102000019B3360F7BDC046F4400050F0400050D3
:10103000A00000108023264A70B50D00D16F5B0020
:101040000B430400D3670820FFF7C2FE7821062077
:10105000AB782A78DB000B40697849000140F0202A
:101060000B43297A40014902014013430B4323609B
:10107000EB7869791B0149010B4304210B43636041
:10108000082361680B436360002A0FD12B79AA798A
:101090001B055205134380226168D2020B431343A0
:1010A0006360802362681B0313436360EB79002550
:1010B0002365084C29002022200025626562A56274
:1010C000E56202F07DFA044B2800236370BDC04640
:1010D00004800440A0000010F50F00004268044B9B
:1010E00004491343044A4360D36F0B40D3677047EE
:1010F00004000400FFFEFFFF0480044010B5082236
:1011000004000021013002F05BFA012323700E334A
:10111000237210BDF7B504000800A030C0002018ED
:1011200040680F270190C120C326DD0065198000AB
:101130002858B60038404030AD59800000596668E4
:101140003D400B3F37436760632A1AD90127019E50
:10115000DB193A00DE408A40236D3E420FD0134334
:1011600023650230AD0065192B00FC3358608023E5
:1011700004229B00E850636893436360F7BD934388
:10118000EEE70023190001F0FDFC6422002301F0CA
:10119000C3FBE7E7F7B5040045481500066A08AA4F
:1011A000012012780193072E1CD88B040F009B0F8F
:1011B000022B18D1F022019B92009B0113403200B8
:1011C0006032D2000B43A21853600122384900203C
:1011D0004B6A9A4033006033DB001A51099B1E6052
:1011E00001360E62FEBD0921D940014205D0019BA6
:1011F0009901F0239B0019400F4301239A4219D112
:10120000236810001342EDD129498A6A072AE9D8D8
:101210009300E3181800ADB2FE30458080208000B6
:1012200017431D5233006033DB00E31801325F6067
:101230008A62CAE7022A26D1226818001A42D1D14E
:101240001B49CA6A072ACDD83B00102713431F4306
:101250009300E3181800FE3040882D042843AC4664
:101260001D00FC356860802080001D5A60460543E3
:10127000802080001D5033006033DB00E318013212
:101280005F60CA62A1E71800042AABD122681A4243
:10129000A8D007498A6A072AA4D89300E31818003F
:1012A000FC3045608020800017431D50BAE7C046DF
:1012B000A0000010F0B51D00002387B00493059333
:1012C000544B0E001B6A0400023341680292082B43
:1012D00002D9012007B0F0BD4909C9B20C9801310B
:1012E00001F080F9029B012B08D162680F33134390
:1012F0006360690001F076F9050006E0029B002BAF
:10130000F7D1290001F06EF9451EB278632A43D95E
:10131000AB1C03930427802104AB2A0001934901ED
:10132000002320000097FFF735FF802105AB050063
:10133000019320000023039A00974901FFF72AFF39
:101340002843C6D101221100049D6B46A940039198
:101350001100A7681B7B3B43A3600D9B17001D601A
:10136000059D3378A9400D0071789F408C46DE00C2
:1013700091422ED10299284A002918D1236DA6192D
:10138000BB432365A024E400335903990B43335135
:10139000B3582B43B3509DE700232800190001F0F8
:1013A000F1FB6422002301F0B7FA0390B2E7216D4C
:1013B000A61939432165B1585B002943B150032177
:1013C0009940626D8A43614699400B0013436365FF
:1013D00080E7029900290BD1236DA6193B432365B1
:1013E0000D4B0399F2581143A022F150D200CFE7E0
:1013F000216DA619B943A0272165FF00F1595B00B3
:10140000294303259D409A40F151616DA9430A4348
:1014100062655FE7A000001004050000064B10B5F0
:101420005C6A0123C022A340C90040189200815881
:101430000B43835010BDC046A0000010044A012099
:10144000536A072B02D81B18002053627047C0460E
:10145000A0000010014B586A7047C046A000001061
:1014600070B501249440094ECB00C3189D59220049
:101470002543A0249D51E4001D5949002A431A51D7
:1014800003238B40826D1343836570BD0405000008
:10149000F7B50400204D0092012901D004291CD188
:1014A000A96A0120072917D880278E00A619BF0036
:1014B000F25B4C34944602009A4013006246884026
:1014C00013439BB2F353238803439BB22380009BB7
:1014D00019600131A9620020FEBDE96A01200729D7
:1014E000FAD880278E00A619BF00F25B0192020095
:1014F0009A401304094A88401340019A0004134398
:10150000F35123004C331B881843009BE06419609F
:101510000131E962DFE7C046A000001000F0FF0FD4
:10152000014B920099507047A000001010B5024B7B
:1015300002481B6B984710BDA000001000400050EF
:10154000074A03000020934208D0064A0130934224
:1015500004D0054A9818431E984102307047C0468F
:1015600000400640008006400040F9BF30B5448C82
:10157000018C0300A5B28AB2081B8C4202D9DB6938
:10158000D218501B30BD8022F0B50B6905000C004D
:1015900085B05200002B02D18B69002B2BD06368E1
:1015A000AE6802936B69DBB2019316425CD1F3071C
:1015B0003AD52369002B59D0E368019A1A70236940
:1015C000013B2361E3680133E3602369002B2BD1E6
:1015D000A369002B02D10223FF332B6123000222D7
:1015E0002D331A70676A002F1ED021002800A36ACD
:1015F000384AB84718E0496886680291416916423E
:1016000012D0CAB2019203938023AA685B00676A72
:101610001343AB60002F04D021002800A36A2E4A98
:10162000B847039B002BC2D1029B002B1AD0042287
:10163000164217D023681B78EB616368013B636037
:101640002368013323606368002B0BD12A612200D9
:101650002C321370666A002E04D021002800A36A81
:101660001E4AB04705B0F0BD0123CCE7A369002BAB
:10167000DAD02000FFF77AFFE369013B984207D1F7
:10168000676A002F04D021002800A36A144AB847D3
:101690002000FFF76BFFE269531E984205D1638C6F
:1016A000013393420DD100236384238CA2690199F5
:1016B000D154238CE2690133934206D10023238461
:1016C000B2E7638C01339BB2EEE7238C01339BB20C
:1016D000F5E7C04647160000491600004616000010
:1016E0004A160000CB6100230B844B840223FF3396
:1016F0008A61C36070470B002D331B78022B02D127
:101700000223FF33036100230B848B61CB614B8485
:101710007047082310B582681A42FCD00124036880
:10172000A3430360FFF70CFF0349044A095CD36F2E
:101730008C40A343D36710BDA83A00000480044046
:1017400010B50C2204000021043001F039FF96236B
:101750009B0123600123E37210BDF0B5036887B0DD
:1017600005000C0001921B0507D5100000F03AFFA0
:1017700001382862002007B0F0BD0A2301270F2698
:10178000019A7F42534305930B01009303960297FE
:101790000099059800F026FFA02305381B03984206
:1017A00013D20A2100F01EFF731C411C5943049000
:1017B000019800F017FF231A844200D2031B029AFB
:1017C000934202D2049F03960293009B013E1B1B8F
:1017D0000093072EDCD180235B029F4203D2039B40
:1017E000AB622F62C6E70148C5E7C0464F1600004E
:1017F000F8B501260D0004001700FFF7A1FE3749D8
:10180000CB6F31009C46364B1A5C033391400A0083
:1018100061460A433149185CCA67FFF7D9FA80204C
:10182000AB79297A2A7B4902DB030B430001910241
:10183000014030200B43697A9203090101400B43B8
:10184000A97A1030890101400B43E97A34388900C4
:1018500001400B438021C9010A4013436A7B802168
:10186000824049010A40134329681E43266000292B
:1018700006D1EB79002B0BD163681A4A13400BE0B9
:101880003A002000FFF769FF0028F2D016481FE059
:10189000802362685B00134363606B79002B0FD079
:1018A00001232268134340222360636893436360EB
:1018B0002B79002B08D0012322681343236006E014
:1018C000402362681343F2E763685B0601D400209B
:1018D000F8BD012223689343F0E7C046048004402A
:1018E000A83A0000FFFEFFFF4F160000042310B5CA
:1018F0008A18914205D1082382681A42FCD0002040
:1019000010BD84681C42FCD00C780131C461F0E742
:10191000F7B58B1801938023802680271B020125B1
:101920009C467600BF01019B994201D100201BE03B
:1019300083682B42FCD08268836813438360324201
:101940001CD1140063463C401340520405D4002CC3
:101950000BD1002B0ED00A4806E0002C05D15A42CC
:1019600053415800064BC018FEBD5A425341044A29
:101970009818F9E743690B700131D4E70148F3E7A0
:101980004B1600004E160000F8B50C001E001700A4
:10199000FFF7D6FD302205000021200001F010FEE7
:1019A000230002222D331A700022013B1A700A4BC9
:1019B000AA00D450094A6762DA60094BA6625B57F5
:1019C000002B06DB1F2213401E3A9A401300054AE3
:1019D00013600020F8BDC046D40000108715000039
:1019E000AE3A000000E100E00B0010B52C331C788B
:1019F000012C0ED0146852680C608A604A60012283
:101A00001A700423C36043683F329343436000204D
:101A100010BD0148FCE7C0464416000004230361E2
:101A200042683C331343436000234B602C310B70FE
:101A300070470B002C331B780620002B04D048681D
:101A40008B681B1A002013607047F7B517000A0057
:101A500001932D32137806000C00032B53D08B69B1
:101A60007D68002B44D0012303610800FFF77EFD51
:101A70000090002808D0A84200D90095009BED1ADC
:101A80000023009A93420DD1002D1ED10123656AD7
:101A9000F360002D26D1019B002B01D0009A1A6023
:101AA0000020FEBD608CA269591C125C3868C254CB
:101AB000638CE0690133834203D1002363840B000C
:101AC000DFE7638C01339BB2F8E73B68009A9B1811
:101AD000E3607B682561636103232D342370023B3F
:101AE000F360D8E721003000A36A084AA847D2E78C
:101AF00039686561E1600321256111700222FF32BE
:101B0000C2600093C7E70248CBE7C0464716000013
:101B1000451600008B69002B02D10223FF330361BD
:101B200000230B612D3102330B7070470B002D33F6
:101B30001B780620022B04D008694B691B1A002071
:101B40001360704710B5034B0348DA681968904773
:101B500010BDC046D40000100040064010B5034B35
:101B60000348DA685968904710BDC046D400001099
:101B70000080064010B5034B0348DA689968904727
:101B800010BDC046D400001000C0064030B50C00A7
:101B900085B005006846FFF7D3FD63680093237A9C
:101BA000022B02D0032B00D000236A465372637AC3
:101BB0006946013B5A4253416A469372A37A5A1EC0
:101BC00093416A461371E37A5A1E93416A465371F0
:101BD000A07B074B80002268C058FFF709FE002851
:101BE00003D1A37B2B7005B030BD0248FBE7C04694
:101BF000B43A0000AF2F000010B50278034B9200FA
:101C0000D058FFF786FD002010BDC046B43A000052
:101C10000078064B8000C05810B5FFF779FE431ED0
:101C20009841034B4042184010BDC046B43A0000F2
:101C3000AF2F000010B50078034B8000C058FFF7AD
:101C400055FE002010BDC046B43A00000020704789
:101C500000207047F7B51600002202700F680500DB
:101C6000974218D06132002B00D0203A01240A3A62
:101C700001923800310000F03BFD019B3A005B18F7
:101C80000700092901D80B0030332B55631C9642FD
:101C900005D9200002E0302343700120FEBD1C0066
:101CA000E7E770B5060001200C0086B0824213D130
:101CB00002940024094D0193094B01A928742800BE
:101CC00003938C818E73CC730C74FFF75FFF20003D
:101CD000044BAB60044BEB6006B070BDE400001039
:101CE00000000101351C0000111C000010B5054C5E
:101CF000237C002B04D02000FFF77EFF00232374F9
:101D0000002010BDE400001007B501900648037CD8
:101D1000002B05D00122836801A9984701200EBD40
:101D200001204042FBE7C046E4000010F0B5774BCD
:101D300006001B7C0F0093B0002B00D1E1E00025D2
:101D40000895019504953078002800D1DBE025281E
:101D500026D0FFF7D9FF01360135F4E70A21029AB0
:101D6000039E4A43303A9B180293731C0393737883
:101D70001A00303A092AF1D92E2B17D00396039B6B
:101D80005E78642E2ED0782E00D9B4E0612E13D860
:101D9000462E4ED0582E00D0ADE03C00012735E055
:101DA00000230293E1E7039B01330393039B5B78DA
:101DB000303B092BF7D9E2E733000122623BDBB26B
:101DC0009A40534B1A420AD1732E72D0632E00D020
:101DD00091E03C0001CCFFF797FF013565E03C0046
:101DE000692E0FD13C0008CC0A22079307A90123D2
:101DF00009A8FFF72FFF844609AB634401900493C1
:101E0000582ECBD00127782E0DD1002708CC1022D8
:101E1000089308A93B0009A8FFF71CFF844609ABFB
:101E20006344019004936F2E14D108CC08220893C8
:101E30001DE03C00019E029BB34227DC029A0199FF
:101E400000238A4200DB531AED18049B002B2CD090
:101E5000049E23E0622E15D0702E05D0752EE9D198
:101E600008CC0A22089302E0102208CC08933B0019
:101E700008A909A8FFF7EEFE844609AB6344019068
:101E80000493D7E708CC02220893F0E72020FFF75D
:101E90003BFF0136CFE7013EFFF736FF30780028E1
:101EA000F9D1049B04965D19AD1B039E27000236F1
:101EB00049E73C0080CC002FF7D0380000F076FDD9
:101EC000060001900590029BB3420FDC059A02992F
:101ED00000238A4200DC8B1A5D192E00BB1B585D63
:101EE0000028E2D0FFF710FF0135F7E72020FFF7C9
:101EF0000BFF0136E7E73000FFF706FF3C00013536
:101F0000D3E701256D42280013B0F0BDE4000010B6
:101F1000916048000FB407B504A901C90191FFF70A
:101F200005FF03B008BC04B0184713B50848037C8C
:101F3000002B02D10120404216BD6B46DC1D012260
:101F40002100C36898470028F4D12078F4E7C04600
:101F5000E40000100FB470B5184B88B01B7C002B48
:101F600029D00DAB0193002402AD2C70FFF7DDFFEB
:101F7000C0B228700D28F6D00A28F4D0260001340B
:101F8000142C15D0FFF7D1FFC0B228550D2801D071
:101F90000A28F3D10023AE19B3702800019A0C99D6
:101FA00000F012F9C0B208B070BC08BC04B0184709
:101FB00000232B75F1E701204042F4E7E400001014
:101FC00003000120202B05D000200422093BDBB2B6
:101FD0009A424041704770B50025036804001878A4
:101FE000FFF7EEFF012801D0280070BD23680135FE
:101FF0005A1C22605878F3E7F7B5160000220270E9
:102000000F680500974218D06132002B00D0203AAB
:1020100001240A3A01923800310000F069FB019B6B
:102020003A005B180700092901D80B0030332B5503
:10203000631C964205D9200002E030234370012042
:10204000FEBD1C00E7E7F0B51F00002305000C00F3
:102050008FB00092029304932A78002A00D1ACE05A
:10206000252A2AD00123009802A90135B847F3E7B1
:102070000A230D005E43303E96196A78691C1300EE
:10208000303B092BF4D92E2A1AD029000B005A789C
:1020900004201300019183430131682BF6D0642A98
:1020A00013D0692A11D0130020218B43462B24D151
:1020B000072307349C43083419E00026DDE701318B
:1020C0004B78303B092BFAD9E0E708CC0A2203937E
:1020D00003A9012305A8FFF78FFF202205AB1D18D8
:1020E000331A009802A9B8472A78002A02D1019D24
:1020F0000235B1E70123013DF3E7582B17D108CC96
:10210000783A0493531E9A4104A9D3B205A8102229
:10211000FFF772FF202205AB1D18331A009802A9A1
:10212000B8472A78002AE2D00123013DF6E71100E2
:102130006239C9B213293ED821480123C840184248
:102140001CD008CC0493702A03D10E211D4B5A5C7D
:1021500002E00A220E29F9D9012304A905A8FFF7F4
:102160004BFF202205AB1D18331A009802A9B8476F
:102170002A78002ABBD00123013DF6E7632A05D166
:1021800004CCD2B2009802A9B847B0E7732A12D1A2
:102190002568002D0AD0280000F008FC2022331A00
:1021A000009802A9B8472A78002A01D104349EE792
:1021B00001230135F4E70123E4E702980FB0F0BDF5
:1021C00001600800C03A0000F0B503788DB00392BA
:1021D00006910790002B00D139E10023019307E01D
:1021E00006A8FFF7F8FE051E0CD007A8FFF7F3FEC0
:1021F000069B1B78002B0DD0079B1C780493002CAA
:10220000EED107E0069B19785A785F1C252904D087
:1022100094422BD001980DB0F0BD252AF8D063234D
:102220000400029300903E78002E06D07C232340C9
:1022300005937C231C421FD000260697012EE9D06F
:102240007C272740042F70D100220120039B02CB62
:10225000029CAC4263D1002A03D0A446049A624493
:102260000792019A039301320192C1E7049A023363
:10227000013207920693BBE7692E42D016D8632E2F
:1022800043D00BD8392E03D82F2E1DD80126D4E7E2
:10229000582EFBD120231C43103B04E0642EF5D1C3
:1022A0006C4B1C430A2300930137BCE730006F38A6
:1022B000C3B2092BEAD80928E8D800F07FF91EE755
:1022C000E7E72DE71AE7E7EB01F042FA059B0A2260
:1022D000036009A9380000F0CDFF060001F038FACC
:1022E0000368002B00D10596099F059B013F0293CF
:1022F000DAE720231C43163BD5E720231C43183B79
:10230000D1E720231C43059BCDE704231C43029BFC
:10231000632BC9D1623BEAE708231C43C4E7049A54
:10232000525D4A550200013592E7082F2BD1002655
:1023300007A8FFF750FE039F029B10CF079D1B19B4
:102340000393039B02959C420ED1002E00D007956B
:1023500000232370019B03970133019348E7009BFF
:10236000012623700134ECE72B780093002BECD08E
:102370000098FFF725FE01350028F0D0002EE7D0A9
:10238000029B0793E4E7202F00D043E707A8FFF75D
:1023900022FE079D009A2B78002A3AD10A32009239
:1023A000302B36D16B780632BB430092582B01D0CC
:1023B0000823009301230493AD192800079500F02A
:1023C000F5FA029B9B1B09AE83422ED200270B22FB
:1023D0002900300001F0F2F9F77201F0B9F9009A22
:1023E000076008A9300000F045FF070001F0B0F9D0
:1023F0000368002B00D00DE7089B9B1BEB1807938D
:10240000049B039A5F4308CA03921F60019B013338
:10241000E4E62B2B06D02D2BCCD101235B420126E9
:102420000493C9E701260496C6E701F091F9002359
:1024300031000360009A280000F01CFF070001F043
:1024400087F90368002B00D0E4E6099BD7E7012059
:102450004042E0E62020000072B607488047074966
:10246000074A084B9B1A03DD043BC858D050FBDCDD
:1024700062B60548804700001F070000B83C000016
:1024800000000010640000100D0300002548004704
:10249000254800472548004725480047254800476C
:1024A000254800472548004725480047254800475C
:1024B000254800472548004725480047254800474C
:1024C000254800472548004725480047254800473C
:1024D000254800472548004725480047254800472C
:1024E000254800472548004725480047254800471C
:1024F000254800472548004725480047254800470C
:1025000025480047254800472548004725480047FB
:1025100025480047254800472548004725480047EB
:10252000254800478D2400009124000095240000D8
:10253000992400009D240000090500008D2400005E
:102540008D2400008D240000451B00005D1B000051
:10255000751B00008D2400008D2400008D240000D8
:102560002D1500008D2400008D2400008D24000016
:102570008D2400008D2400008D2400008D24000097
:102580008D2400008D2400008D2400008D24000087
:102590008D2400008D2400008D2400008D24000077
:1025A0008D2400008D2400008D2400008D24000067
:1025B0008D2400008D2400008D24000002B471469B
:1025C00049084900095649008E4402BC7047C0467C
:1025D00002B4714649084900095C49008E4402BCB6
:1025E0007047C046002243088B4274D303098B42D4
:1025F0005FD3030A8B4244D3030B8B4228D3030CD3
:102600008B420DD3FF22090212BA030C8B4202D374
:102610001212090265D0030B8B4219D300E0090A9C
:10262000C30B8B4201D3CB03C01A5241830B8B42A5
:1026300001D38B03C01A5241430B8B4201D34B038E
:10264000C01A5241030B8B4201D30B03C01A5241F3
:10265000C30A8B4201D3CB02C01A5241830A8B4278
:1026600001D38B02C01A5241430A8B4201D34B0261
:10267000C01A5241030A8B4201D30B02C01A5241C5
:10268000CDD2C3098B4201D3CB01C01A5241830979
:102690008B4201D38B01C01A524143098B4201D3B3
:1026A0004B01C01A524103098B4201D30B01C01ADE
:1026B0005241C3088B4201D3CB00C01A5241830858
:1026C0008B4201D38B00C01A524143088B4201D385
:1026D0004B00C01A5241411A00D2014652411046E5
:1026E0007047FFE701B5002000F0F0F802BDC046DA
:1026F0000029F7D076E7704703460B437FD40022CA
:1027000043088B4274D303098B425FD3030A8B4285
:1027100044D3030B8B4228D3030C8B420DD3FF22EF
:10272000090212BA030C8B4202D31212090265D0BD
:10273000030B8B4219D300E0090AC30B8B4201D370
:10274000CB03C01A5241830B8B4201D38B03C01AB7
:102750005241430B8B4201D34B03C01A5241030B2E
:102760008B4201D30B03C01A5241C30A8B4201D3DF
:10277000CB02C01A5241830A8B4201D38B02C01A8A
:102780005241430A8B4201D34B02C01A5241030A01
:102790008B4201D30B02C01A5241CDD2C3098B42E6
:1027A00001D3CB01C01A524183098B4201D38B0163
:1027B000C01A524143098B4201D34B01C01A524106
:1027C00003098B4201D30B01C01A5241C3088B424B
:1027D00001D3CB00C01A524183088B4201D38B0036
:1027E000C01A524143088B4201D34B00C01A5241D8
:1027F000411A00D201465241104670475DE0CA0FAF
:1028000000D04942031000D34042534000229C466E
:1028100003098B422DD3030A8B4212D3FC22890178
:1028200012BA030A8B420CD3890192118B4208D34E
:10283000890192118B4204D389013AD0921100E0B0
:102840008909C3098B4201D3CB01C01A52418309C4
:102850008B4201D38B01C01A524143098B4201D3F1
:102860004B01C01A524103098B4201D30B01C01A1C
:102870005241C3088B4201D3CB00C01A5241830896
:102880008B4201D38B00C01A5241D9D243088B42EC
:1028900001D34B00C01A5241411A00D2014663468F
:1028A00052415B10104601D34042002B00D54942F3
:1028B000704763465B1000D3404201B5002000F032
:1028C00005F802BD0029F8D016E770477047C046EA
:1028D000002B15D1002A13D1002906DB01DC0028CA
:1028E00006D00020C043410802E0802109060020F4
:1028F00007B4024801A14018029003BDD1FFFFFFB9
:1029000003B4684601B5029800F036FA019B9E4672
:1029100002B00CBC7047C046002B11D1002A0FD169
:10292000002900D1002802D00021C943080007B4C3
:10293000024802A14018029003BDC04691FFFFFF6C
:1029400003B4684601B5029800F04AF9019B9E461F
:1029500002B00CBC7047C04610B5002903D100F08E
:1029600007F8203002E0080000F002F810BDC04671
:102970001C2101231B04984201D3000C10391B0AAF
:10298000984201D3000A08391B09984201D3000973
:10299000043902A2105C40187047C04604030202CA
:1029A0000101010100000000000000000023C25CE2
:1029B0000133002AFBD1581E704700000448054B24
:1029C00010B5834203D0044B002B00D0984710BDB4
:1029D0006400001064000010000000000648074971
:1029E000091A8B10C90FC91810B5491003D0044B30
:1029F000002B00D0984710BD640000106400001048
:102A00000000000010B5074C2378002B09D1FFF718
:102A1000D5FF054B002B02D0044800E000BF012386
:102A2000237010BDF8000010000000008C3C000076
:102A3000054B10B5002B03D00449054800E000BF4A
:102A4000FFF7CCFF10BDC04600000000FC000010E6
:102A50008C3C000073B53B4D0A212868FFF7C2FD8E
:102A6000802402386404A04257D2C021364A0906A5
:102A700050603648036A1B021B0A0B4303620023A3
:102A8000936007331360FDF749FDFDF7C9FDFDF7BE
:102A9000B1FCFDF70FFD29682D48FFF73BFA2D48E3
:102AA000FFF738FA80222C4B5200D86F2B49024393
:102AB000DA67DA6F102014438E22DC67284C92000C
:102AC00026008B58274D83438B501C36264B3000F5
:102AD000A361FEF713FB31002800FEF7ABFA2100DB
:102AE00023000122253114330A704A708A70019341
:102AF000A369280000931D4BFEF7DCFB04226B68E2
:102B0000032093436B60FDF7F9FF01001848FEF7BF
:102B1000C3F9002802D1174801E0FEE71648FFF785
:102B2000F9F92000FDF792FC0123114A516E0B4385
:102B300053668022114B52021A601148FFF7EAF9DE
:102B4000FEE7C0460000001010E000E000ED00E0ED
:102B5000003B0000053B000004800440008004406E
:102B60006400001000400050001BB700A086010068
:102B700000C00140363B00001E3B000000E100E0C9
:102B8000503B0000F0B5CE469946030C9C4613041A
:102B900047461B0C1D000E0061460404240C80B542
:102BA0000700100C4B436543414360432C0CC01895
:102BB00024188C46A34203D980235B029846C44460
:102BC000494679435643230C2D042D0C891963443F
:102BD00024046019C918C0BCB946B046F0BDC0464F
:102BE000F0B557464E464546DE46E0B504000D00BA
:102BF0009246994683B08B4230D82DD049465046F4
:102C0000FFF7AAFE290006002000FFF7A5FE331AF1
:102C10009846203B34D49B4653465A4693404246FE
:102C20001F00534693401E00AF423BD8AF4200D135
:102C300079E05B46A41BBD41002B00DA76E0002260
:102C400000230092019301235A46934001930123EC
:102C500042469340009329E08242CFD900220023CC
:102C6000009201930C9B002B01D01C605D600098CA
:102C7000019903B0F0BCBB46B246A946A046F0BDE0
:102C800042469B4620239B1A5246DA404146130097
:102C90004A468A40170042461F43534693401E004F
:102CA000AF42C3D900220023009201934346002B78
:102CB000D8D0FB0772081A4346467B080EE0AB42A9
:102CC00001D1A2420CD8A41A9D41012024196D41C2
:102CD0000021013E24184D41002E06D0AB42EED912
:102CE000013E24196D41002EF8D1009801995B46F0
:102CF00000196941002B24DB2B005A464446D3407F
:102D00002A00E2401C005B461500002B2ADB26004F
:102D10009E40330026004746BE403200801A99414B
:102D2000009001919EE7A342BCD882E7424620234F
:102D300000219B1A0022009101920122DA400192A7
:102D400085E7424620239B1A2A0046469A402300E4
:102D5000F340444613432A00E2401C005B46150042
:102D6000002BD4DA42462F002023260097409B1ADE
:102D7000DE403B003343CDE7F8B5CE46474680B54D
:102D80009146984604000D0000F014F807000E006C
:102D900002000B0048464146FFF7F4FE241A8D411D
:102DA000089B380031001C605D60C0BCB946B0466D
:102DB000F8BDC046F0B5D6464F464646C0B50400FD
:102DC0000D001000190082B0002D00DA87E0002B02
:102DD0000BDB16001F00AB4219D90020002102B006
:102DE000E0BCBA46B146A846F0BD002746428F4136
:102DF000AF4204D800D082E0A64200D87FE0002095
:102E000000218FE0002746428F419F42E5D8AF4224
:102E100000D198E00023994639003000FFF79CFD6F
:102E2000804629002000FFF797FD43461B1A98466D
:102E3000203B00D57CE0310099409A460B003100E0
:102E4000404681400A00AB425FD85CD05146A41A8C
:102E50009D41002900DA93E0002100200126009026
:102E6000019151468E400196414601268E404146D1
:102E70000096002950D0D90756080E435F084146F6
:102E8000012200230CE0AF4201D1A6420AD8A41BC4
:102E9000BD4124196D410139A4185D41002906D0B6
:102EA000AF42F0D9013924196D410029F8D10098B9
:102EB0000199534600196941002B48DB2E002C0074
:102EC000DE404346DC405346002B50DB34009C4040
:102ED00023004446A6403200801A99411EE0002398
:102EE0006242AB4114001D0000298BDB06000F007D
:102EF000994200D971E702D1904200D96DE70123D0
:102F00005B42994688E7A142A0D9002100200090A9
:102F1000019141460029AED1009801994B46002B02
:102F200000D15CE703000C0000215842A14156E7A4
:102F3000424638009A462023310090409B1AD940DF
:102F400003000B437BE7A64200D863E745E7424610
:102F500020239B1A2A009A40260013004246D6409E
:102F60002C001E434346DC405346002BAEDA42465B
:102F70002023350094409B1ADD4023002B43A8E713
:102F8000414620260127761A00200021F7400090B4
:102F90000191019768E7C046074B10B50400002B6C
:102FA00002D0002100E000BF044B1B68002B00D0C2
:102FB0009847200000F056FD000000005402001069
:102FC00010B5034B0100186800F030F810BDC04682
:102FD0001400001010B5034B0100186800F0F8FB56
:102FE00010BDC0461400001070B50F4E0D003168C2
:102FF0000400002902D100F085FB30602900200088
:1030000000F080FB431C03D101256D42280070BDF8
:103010000323C51C9D43A842F8D0291A200000F0C4
:1030200071FB0130F2D1EFE714010010F7B5032274
:10303000CB1C9343083305001F000C2B34D20C2704
:10304000B94233D8280000F071F8374E33681C00BD
:10305000002C2FD139002800FFF7C6FF0400431CC5
:103060005FD134680094009B002B4AD1002C52D0D1
:1030700023682800E3180099019300F043FB019BAB
:10308000834248D123682800FF1A3900FFF7ACFFBC
:10309000013040D02368DB19236033685A68002A66
:1030A00033D1009B336019E0002BC9DA0C232B606D
:1030B0000020FEBD2168C91B20D40B290AD9E219C2
:1030C0002760A34204D1326063681160536005E059
:1030D0005A60F9E76268A3420ED13260280000F01E
:1030E0002DF8200007220B30231D9043C21A98426E
:1030F000DFD01B1AA350DCE75A60EFE723006468B7
:10310000A6E7009C63680093ADE71A005B68A342E2
:10311000FBD10023DAE70C2328002B6000F00EF827
:10312000C6E70760DAE7C0461801001010B502488C
:1031300000F03DFB10BDC0466002001010B5024813
:1031400000F03BFB10BDC04660020010F0B51E0051
:103150003F4B17000C009C46082285B0039000915D
:10316000230061461D780134485D01001140104282
:10317000F6D12D2D0DD125789C1C01230293002E14
:103180000DD10A36302D16D12022237808269343FC
:103190000CE002912B2DF2D125789C1CEFE7102E2C
:1031A00009D1302D07D1202223789343582B02D107
:1031B000102665780234012031004042FFF712FAF0
:1031C0000190012031004042FFF792FA00230122D2
:1031D000180094462A00303A092A12D81500AE4247
:1031E0001EDD5A1C0AD00123019A5B42824205D39C
:1031F00001D1A94211DB63467043281825780134B8
:10320000E8E72A00413A192A01D8373DE7E72A00C2
:10321000613A192A04D8573DE1E701235B42EDE703
:103220005A1C07D12222039918000A60002F09D1E5
:1032300005B0F0BD029A002A00D04042002FF7D01E
:10324000002B01D0631E0093009B3B60F0E7C0465B
:10325000663B000010B5FFF779FF10BD10B5044CB8
:1032600013000A0001002068FFF770FF10BDC04680
:103270001400001010B5044C13000A00010020686F
:10328000FFF764FF10BDC04614000010002310B506
:10329000040003604360836081814366C2810361EF
:1032A00043618361190008225C3000F089F90B4BFF
:1032B000246263620A4BA3620A4BE3620A4B2363F4
:1032C0000A4B9C4205D00A4B9C4202D0094B9C42BF
:1032D00003D12000583000F066FA10BD25350000FB
:1032E0005135000089350000B53500001C01001083
:1032F00084010010EC01001010B5034A0349044892
:1033000000F0F4F810BDC04608000010813900003C
:103310001800001041680B4B10B50400994201D011
:1033200000F02EFBA168084B994202D0200000F06B
:1033300027FBE168054B994202D0200000F020FBFA
:1033400010BDC0461C01001084010010EC010010EB
:103350004B6E10B5DB0705D48B899B0502D4886DB5
:1033600000F025FA002010BD4B6E10B5DB0705D428
:103370008B899B0502D4886D00F01FFA002010BDD8
:1033800010B5094B094A04211A6009480022FFF7C9
:103390007DFF012209210748FFF778FF0222122151
:1033A0000548FFF773FF10BD54020010F93200000A
:1033B0001C01001084010010EC01001010B502483F
:1033C00000F0F5F910BDC0466302001010B50248C8
:1033D00000F0F3F910BDC04663020010F8B5070015
:1033E000FFF7ECFF244B1B68002B01D1FFF7C8FF50
:1033F000224EB4687368013B0FD53568002D38D173
:10340000D62138004900FFF711FE041E26D1306096
:10341000FFF7DCFF0C233B601CE00C22A55E002DB7
:103420001AD12000164B5830E360656600F0BBF9F6
:10343000FFF7CCFF2000082229002560A560656009
:1034400025616561A5615C3000F0BAF86563A5632C
:10345000A564E5642000F8BD6834CCE70423D022DD
:10346000056043600C302900A060520000F0A8F80D
:1034700034603668BDE7C0465402001008000010F2
:103480000100FFFF10B50400FFF798FF236A002B2F
:1034900002D0FFF79BFF10BD044B2362044B1B6857
:1034A000002BF6D1FFF76CFFF3E7C04615330000A1
:1034B0005402001010B5FFF781FF0020024A0349B3
:1034C00000F014F810BDC046080000105133000091
:1034D00010B5044A0449002000F008F8FFF776FF11
:1034E00010BDC0460800001069330000F7B5140095
:1034F000002600900191A5686768013F04D5246803
:10350000002CF8D13000FEBDAB89012B08D90E226A
:10351000AB5E013304D029000098019B9847064315
:103520006835EAE770B50C000E25495F00F0D6F863
:10353000002803DB636D1B18636570BDA389024A15
:103540001340A381F9E7C046FFEFFFFF002070475B
:10355000F8B51F008B8905000C001600DB0505D5AA
:103560000E23C95E0022022300F0A4F8A389054AB5
:1035700028001340A38132000E23E15E3B0000F0DF
:10358000D3F8F8BDFFEFFFFF70B50C000E25495FC3
:1035900000F090F8A389421C03D1054A1340A3818F
:1035A00070BD802252011343A3816065F8E7C046D5
:1035B000FFEFFFFF10B50E23C95E00F009F810BD44
:1035C00003008218934200D1704719700133F9E764
:1035D000002370B5064D040008002B6000F014FABB
:1035E000431C03D12B68002B00D0236070BDC04664
:1035F000580200102E4B70B51B68040083424FD058
:10360000C369002B17D0DB68002B0DD00025E369C0
:10361000DB685959002944D10435802DF7D1E3697D
:103620002000D96800F0D4F8E3691968002902D0B5
:10363000200000F0CDF86169002902D0200000F0E0
:10364000C7F8E169002902D0200000F0C1F8216B21
:10365000002902D0200000F0BBF8616B002902D0E5
:10366000200000F0B5F8A16B002902D0200000F086
:10367000AFF8A16C002902D0200000F0A9F8616C1D
:10368000002902D0200000F0A3F8E16A002902D04E
:10369000200000F09DF8236A002B01D020009847FD
:1036A00070BD0E68200000F093F83100B2E7C0460C
:1036B0001400001070B50400080011001A00002367
:1036C000054D2B6000F0A8F9431C03D12B68002B9B
:1036D00000D0236070BDC0465802001070B50400D1
:1036E000080011001A000023054D2B6000F09CF922
:1036F000431C03D12B68002B00D0236070BDC04653
:1037000058020010002370B5064D040008002B601D
:1037100000F092F9431C03D12B68002B00D02360EA
:1037200070BDC0465802001070B5040008001100BA
:103730001A000023054D2B6000F08CF9431C03D1C7
:103740002B68002B00D0236070BDC04658020010CB
:10375000014B18687047C0461400001070B5002671
:103760000C4C0D4D641BA410A64209D1002600F09C
:103770008FFA0A4C0A4D641BA410A64205D170BDF5
:10378000B300EB5898470136EEE7B300EB58984783
:103790000136F2E7B03C0000B03C0000B43C000051
:1037A000B03C0000704770477047704770477047E3
:1037B000012070470120704770477047002310B503
:1037C0009A4200D110BDCC5CC4540133F8E700002C
:1037D00070B505000C1E10D0043C2368002B00DAE5
:1037E000E4182800FFF7A2FC1D4A1368002B05D13E
:1037F000636014602800FFF7A1FC70BDA34208D9E4
:10380000206821188B42F3D119685B680918216080
:10381000EEE71A005B68002B01D0A342F9D91168CA
:103820005018A0420BD1206809185018116083422B
:10383000E0D118685B68411811605360DAE7A04274
:1038400002D90C232B60D5E7206821188B4203D1C5
:1038500019685B680918216063605460CAE7C04654
:1038600018010010F7B50C228B5E05000C001A073A
:1038700061D44A68002A02DC0A6C002A42DDE76A49
:10388000002F3FD0002280202E682A601A004001BD
:10389000216A0240034227D0626DA3895B0706D5E7
:1038A0006368D21A636B002B01D0236CD21A0023F9
:1038B0002800E76A216AB847431C25D000236360CB
:1038C00023692360A389DB0400D56065616B2E60EA
:1038D000002917D023004433994202D02800FFF773
:1038E00077FF002363630DE001232800B84702003F
:1038F000431CD2D12B68002BCFD01D2B01D0162B0F
:1039000031D12E60002035E02B680C21625E002B47
:1039100008D01D2B01D0162B0AD100236360236928
:103920002360D3E7636023692360D204CDD4CDE75D
:10393000402313431BE00E69002EE3D00F680E6096
:10394000BA1B019200229B0700D14A69A260019B29
:10395000002BD7DDA36A32001F002800019B216ADB
:10396000B847002807DC4023A28913431BB201207B
:10397000A3814042FEBD019B36181B1A0193E6E766
:103980000B6970B505000C00002B02D10025280042
:1039900070BD002804D0036A002B01D1FFF772FD2F
:1039A0000C22A35E002BF1D0626ED20704D49B05DB
:1039B00002D4A06DFFF7FBFE28002100FFF752FFA5
:1039C000636E0500DB07E2D4A3899B05DFD4A06DFD
:1039D000FFF7F3FEDBE70000010010B5002805D17A
:1039E000054A06490648FFF781FD10BD054B1868DA
:1039F000FFF7C6FFF9E7C046080000108139000054
:103A0000180000101400001058220120014B404201
:103A10001A6070475802001058220120014B4042A2
:103A20001A6070475802001058220120014B404292
:103A30001A60704758020010044A030010680028FA
:103A400002D0C318136070470148FAE764020010FF
:103A50006802001058220120014B40421A60704752
:103A600058020010FEE7C04600000000C027090011
:103A700090051000C05C1500F0B31A00200B200068
:103A8000009F2400E0322900C0C62D00509731006D
:103A9000E06735007038390000093D0040164000ED
:103AA00080234300C03046000E0F100304050304BA
:103AB00005000000004006400080064000C00640AF
:103AC000020A0A0A0A0A0A0A0A0A0A0A0A08100064
:103AD0003D400B4010402640354003400640144016
:103AE0000E400D4025401240284002401840094039
:103AF0000A40000043682564203D202564090A002F
:103B000025640D0A0041444320696E746572727524
:103B10007074206578616D706C652E0D0A004144EB
:103B2000432043616C6962726174696F6E20446FF7
:103B30006E652E0D0A004144432043616C69627238
:103B40006174696F6E204661696C65642E0D0A00B0
:103B5000436F6E66696775726174696F6E20446F3A
:103B60006E652E0A00002020202020202020202802
:103B70002828282820202020202020202020202025
:103B8000202020202020881010101010101010105D
:103B9000101010101010040404040404040404049D
:103BA000101010101010104141414141410101011C
:103BB00001010101010101010101010101010101F5
:103BC0000110101010101042424242424202020202
:103BD00002020202020202020202020202020202C5
:103BE0000210101010200000000000000000000073
:103BF00000000000000000000000000000000000C5
:103C000000000000000000000000000000000000B4
:103C100000000000000000000000000000000000A4
:103C20000000000000000000000000000000000094
:103C30000000000000000000000000000000000084
:103C40000000000000000000000000000000000074
:103C50000000000000000000000000000000000064
:103C600000000000000000003D400B4010402640D6
:103C700035400340064014400E400D4025401240A0
:103C800028400240184009400A400000000000009F
:103C9000F8B5C046F8BC08BC9E467047F8B5C046AB
:083CA000F8BC08BC9E46704709
:083CA80058C6FF7F0100000077
:043CB000312A0000B5
:043CB400052A0000DD
:103CB800001BB70000000000000000000300000027
:103CC8001C01001018000010000000001C0100106A
:103CD80084010010EC01001000000000000000004A
:103CE80000000000000000000000000000000000CC
:103CF80000000000000000000000000000000000BC
:103D080000000000000000000000000000000000AB
:043D180000000000A7
:04000003000024597C
:00000001FF
