:10000000E01F0010FD240000352500003925000008
:1000100000000000000000000000000000000000E0
:100020000000000000000000000000003D2500006E
:1000300000000000000000004125000045250000F0
:10004000492500004D2500005125000055250000E0
:10005000592500005D250000612500006525000090
:10006000692500006D250000712500007525000040
:10007000792500007D2500008125000085250000F0
:10008000810300008D2500009125000095250000CA
:10009000992500009D250000A1250000A525000050
:1000A000A9250000AD250000B1250000B525000000
:1000B000B9250000BD250000C1250000C5250000B0
:0402FC00FFFFFFFF02
:10030000402292029A1A92467047C046174B002B21
:1003100000D1134B9D46FFF7F3FF00218B460F469C
:100320001348144A121A03F053F90E4B002B00D055
:1003300098470D4B002B00D0984700200021040067
:100340000D000D48002802D00C4800E000BF03F06B
:100350000DFA2000290002F0CFFB02F027FEC04674
:10036000000008000000000000000000E01F001076
:10037000640000105C02001000000000000000009B
:1003800070B51E4E1E4801F01DFE01F026FEB36E34
:10039000DB0031D51B4C3000210000F051FE220063
:1003A0000021164800F072FE0028F8D02068164D93
:1003B0001649684302F068F9154B0200A16818005D
:1003C00001F000FE21000D4800F03AFE220001215C
:1003D0000A48103200F05AFE0028F7D020690B4975
:1003E000684302F051F90B4B0200A169180001F0BB
:1003F000E9FD80235B05B36670BDC04600C00140C7
:10040000F43A000064000010E30C0000FF0F00004D
:10041000143B00001F3B00008E2373B50121022511
:1004200000260F4C9B00E25868468A43E250E2588F
:10043000AA43E2500B4B1E606B461E710A4B0093A1
:1004400000F0EAFBC020A84000F0D2FCFF22074BDE
:100450001E60A36F93431D43A56700F075F973BD3C
:100460000080044040800440006CDC02E0800440D6
:10047000012330B587B001930023174C01A9050073
:1004800020008B8000F038FD032303930493134B6B
:10049000200003A9059300F08BFD8023A2681B06B2
:1004A0001343A3608023A268DB04134329002000C8
:1004B000A36000F0C5FD2A000021074800F0E6FD1A
:1004C0000028F8D02A0001210348103200F0DEFD98
:1004D0000028F7D007B030BD00C001400100000186
:1004E0007FB580230126104ADB01D16F96250B438F
:1004F000D3670E4B2D021E6000F054FB04006846CB
:1005000001F078F902236A46FF3369469380084870
:100510002200009501F0C6F93200290023000020D6
:1005200001F017FC7FBDC046048004409480044065
:100530000040064070B586B003AD280000F040FED4
:100540000026EF23154C290020002E80EE706B71E1
:1005500000F0D2FD0125802102AB0193009533000C
:1005600020000F4A490100F07CFE2000029A03217E
:1005700000F0DCFF029BC1219D402289DB002A4361
:1005800092B222811B1989005A58064802405A50DB
:100590000422A3889343A38006B070BD004000509E
:1005A00050C30000FFFF9FFFF8B58023214CDB0202
:1005B000E26F102713438022E367E36F1E4D1F4E47
:1005C0001343E367280077640022012100F06CFCEC
:1005D000280037610422002100F066FC00278021FA
:1005E000280037640122C90100F06DFCF763802701
:1005F000BF0139002800012200F065FC102328000B
:1006000073600D22222100F04FFC8022E36F39003D
:1006100093432800E3677F3A00F055FC102328003D
:1006200073600D22222100F03FFC8022E36F934390
:10063000E367F8BD0480044000C00040004004406F
:10064000802310B501240A4ADB01D16F03200B433C
:10065000D367084B1C6000F01BFC00F03DFAE12161
:10066000030022004902002001F073FB10BDC046C8
:1006700004800440948004408E23F7B501250221B4
:100680000027114C9B00E258104EAA43E250E2585A
:1006900068468A43E250E2581E318A43E2500C4BCE
:1006A0001F606B4600961F7100F0B6FA380000F02C
:1006B0009FFBFF22074B1F60A36F93431D43064B15
:1006C000A5671E60F7BDC04600800440001BB70050
:1006D00040800440E08004400000001010B5FFF7A7
:1006E000CBFF10BD8E23F7B5012502210027114C49
:1006F0009B00E258104EAA43E250E25868468A43F3
:10070000E250E2581E318A43E2500C4B1F606B46A8
:1007100000961F7100F080FAC020800000F068FB96
:10072000FF22074B1F60A36F93431D43054BA56733
:100730001E60F7BD0080044000366E01408004401A
:10074000E08004400000001010B51F4C0020636AD8
:10075000DB051B0F013B0E2B02D81C4A9B0098584F
:100760000322616A236F1340022B13D0934218D0E7
:10077000012B26D1206C1040033843425841144BC2
:1007800040421840134BC018A16F01F07DFF124C7E
:10079000206010BD1F2319400131490001F074FF92
:1007A000F2E7A268206C1F211840033843425841E9
:1007B000074B40421840074B0A40C01801325043D3
:1007C000E2E70448E0E7C046008004406C3A0000DD
:1007D00000E548FF001BB70000000010704710B58F
:1007E000044B054A9360054B054A1A60FFF7F6FF74
:1007F00010BDC0460000000000ED00E00000001049
:10080000001BB700431E70B55B184D420C002B4017
:10081000984201D9002070BD05225242521A9A42D4
:10082000F8D3081DC01802F0D5FB0028F2D003341D
:1008300023181D40034A2B1F281A58801A802800AD
:10084000E9E7C04639300000031F054A198810B592
:10085000914203D15B88C01A02F0C6FB10BDC046AE
:10086000393000000A0010B500280BD00023190011
:1008700002F092F90023044A02F0A0F8001C0138AB
:100880000028FCD110BDC04600093D004023044AA9
:1008900010B5D16F0A200B43D36700F0F9FA10BDF1
:1008A0000480044070B54024104DEE6F3443EC6773
:1008B00001249440220080241E788D00A401002E83
:1008C00004D145192B5993432B5170BD5B78002BF4
:1008D00009D18A231B01C91889000A5040190359FC
:1008E00013430351F1E78823F4E7C0460480044032
:1008F000EFF3108172B60720064A13688343136032
:10090000054A033813698343136130BF81F31088AC
:100910007047C0460000024000ED00E010B5EFF364
:10092000108172B607230C4C22689A43063B13438E
:100930008C222360094C9200A35883430420A350C7
:10094000074B1A6902431A6130BF1A6982431A6160
:1009500081F3108810BDC0460000024000800440B2
:1009600000ED00E010B5EFF3108172B607230C4CD8
:1009700022689A43053B13438C222360094C920062
:10098000A35883430420A350074B1A6902431A61FA
:1009900030BF1A6982431A6181F3108810BDC046C6
:1009A000000002400080044000ED00E0EFF3108101
:1009B00072B60F23084802689A430C3B1343036046
:1009C0000420064B1A6902431A6130BF1A69824338
:1009D0001A6181F3108870470000024000ED00E0CA
:1009E00030B50E4A172811D9050001238121183D81
:1009F000AB408900545823435350002805DB1F2384
:100A000018401E3B8340064A136030BD01238521F8
:100A100083408900545823435350F0E7008004403A
:100A200000E100E010B5002809DB1F22012302408D
:100A300093400B4AD367BFF34F8FBFF36F8F094BC0
:100A4000172808D98124A4001A5918380121814097
:100A50008A431A5110BD8524A4001A59F6E7C046EE
:100A600004E100E00080044003688B4303600368F6
:100A70000B43036003681942FCD07047004870477D
:100A8000001BB7008E23044A9B00D35800209B060E
:100A900001D4024B186870470080044088000010A1
:100AA0000A4B10B5186C03231840012807D0984250
:100AB00008D043425841064B4042184010BDFFF752
:100AC000E1FFFBE7034B1868F8E7C04600800440ED
:100AD000001BB7008800001010B50D4C0020236FDC
:100AE000032B06D8180001F0C5FD10020508FFF71A
:100AF000D7FF10BD074B5868FBE7FFF7D1FF1F2258
:100B0000A368134001335843F3E70348F1E7C046B5
:100B10000080044088000010001BB7000F4B10B588
:100B20001C680F4B00201B68E4B2032B06D818008A
:100B300001F0A0FD12020C0FFFF7A4FF002C03D060
:100B4000210001F0A1FD0400200010BD054B5868F4
:100B5000F4E7FFF7C1FFF1E70348EFE7E88004405F
:100B6000E080044088000010001BB70010B5FFF7BC
:100B7000B3FF0A4BFF241A681300234022420BD014
:100B8000074A010E1268000222400132FF325A4326
:100B9000002301F013FF0300180010BD94800440EF
:100BA000F480044010B5FFF7E1FF10BD10B5FFF76A
:100BB000DDFF10BD10B5FFF7D9FF10BD10B5072838
:100BC00021D801F057FD060E2004111720140F48FC
:100BD00010BDFFF781FF0E4B996FC9B201F054FDB4
:100BE000F6E7FFF779FFF3E70A4B1868F0E7094BE0
:100BF0005868EDE7FFF754FF1F22054B9B68134031
:100C000001335843E4E70020E2E7C046001BB70089
:100C100000800440880000108E22802370B51F4C95
:100C20009200A15806000B430321A350236C226CB1
:100C30008B43134302791A4813432364FFF714FFCD
:100C4000FFF72EFF366801000500300001F01CFDA3
:100C5000144A0023964208D8134A0133964204D816
:100C60000023124AB2425B4102331F26A168421E92
:100C700032406036B1430A435B0113438E22802128
:100C8000A3609200A3588B43A3500123E2681A4249
:100C9000FCD06843064B986070BDC046008004409D
:100CA00044800440802FA604C0175302E08B290122
:100CB000880000101821074A10B5D36A064C8B43F0
:100CC000D362E022054952008B5823408B50044BDD
:100CD000186010BD00400440FFFDFFFF00C0004051
:100CE000880000101821104A10B5936B04008B4344
:100CF0009363E02240200D4952008B5883438B5070
:100D00000B4BC03A196AFF3A0A438E211A628900D6
:100D10005A5820388243DA305A5040000549FFF7CC
:100D2000A1FD054B1C6010BD0040044000C0004008
:100D30000080044080C3C901880000101821154BB1
:100D400010B55A6B04008A435A639A6BC0208A43D9
:100D50009A63E022104952008B5883438B500F490D
:100D6000BD380B6A0A6A834313430D4A1D30A24201
:100D700092415242520013438E220B6292008B58D2
:100D80008343DA308B5040000649FFF76BFD064B7A
:100D90001C6010BD0040044000C0004000800440C2
:100DA000C0E1E40080C3C9018800001070B5F025DF
:100DB0000D4CC20C636A6D005B0A2A405B021A4349
:100DC000C23D4B08FF3D013B2B4013438E22636223
:100DD0009200A3582135AB430002A350000A01F052
:100DE00053FC024B586070BD008004408800001026
:100DF00010B503240949020A0B6F23409A420BD015
:100E0000C0B2002808D10B6F2240A34313430B67E5
:100E100003480121FFF728FE10BDC04600800440B2
:100E200074800440F8B50400FFF756FE114B06002D
:100E30001B685C43211E1BD00021A04218D3210057
:100E400001F022FC0021012812D80B0022000D0025
:100E50003400FF27A41A9D41074829020760200E8D
:100E60000143200201F0AAFD0121044B3840186023
:100E70000800F8BD94800440F0800440F4800440F1
:100E800010B501210148FFF7EFFD10BDE4800440DB
:100E900001228240034B59689143596059680A43C3
:100EA0005A60704700800440032310B5FF240B40B4
:100EB000DB009C409A408908890040180168A143E2
:100EC0000A43026010BD002A07D0002904DBE0229B
:100ED000520083588B43835070470029FCDBE0238A
:100EE0005B00C2581143C150F6E7890093B2401825
:100EF000120D80180360704780230E4A10B5D46F1E
:100F00005B042343D3670023802243660B79D2001E
:100F10005B4213400A68D2B2134320220360C36EBF
:100F20009343C3664B79C46E5B0113402343C3668E
:100F300010BDC0460480044010B50822002102F014
:100F400047FB10BD024A0349D36F0B40D36770477C
:100F500004800440FFFFFFFEF8B50400FF2725686A
:100F600023680800BB4323600E4901F08DFB26680F
:100F700001383840304380262060962023680A4A92
:100F8000F60513402360236840003343236007497C
:100F9000FFF768FC236800202560334200D1012060
:100FA000F8BDC04620A10700FFFBFFFF80C3C901B9
:100FB000E0234A68DB0110B512031A400B681B05D9
:100FC0001B0D1A430B7A012B02D18023DB021A433B
:100FD00080244B7A24035B4223401343CA7A012ABC
:100FE00002D18022D20513438A7A802149055242D8
:100FF0000A401343836010BDE0234A68DB0110B54B
:1010000012031A400B681B051B0D1A430B7A012BA8
:1010100002D18023DB021A4380244B7A24035B42F3
:1010200023401343CA7A012A02D18022D2051343F6
:101030008A7A8021490552420A401343C36010BD99
:101040000322006903041B0D0B60030C13400B719A
:10105000830C13404B7183001B0F8B604300DB0F2D
:10106000C00F0B7370470322406903041B0D0B6014
:10107000030C13400B71830C13404B7183001B0F47
:101080008B604300DB0FC00F0B7370470831890082
:101090000858032103041B0D1360030C0B4013714C
:1010A000830C0B40537183001B0F93604300DB0FD5
:1010B000C00F13737047C046F7B5002501270B4ECC
:1010C0000B4B34681B68234001933C4205D0094B0D
:1010D000AA00D358002B00D09847640802D00135ED
:1010E000082DF2D1019B3360F7BDC046F44000509B
:1010F000F0400050940000108023264A70B50D0087
:10110000D16F5B000B430400D3670820FFF7C0FEDC
:1011100078210620AB782A78DB000B4069784900FB
:101120000140F0200B43297A40014902014013435A
:101130000B432360EB7869791B0149010B430421C0
:101140000B436360082361680B436360002A0FD17F
:101150002B79AA791B055205134380226168D202BC
:101160000B4313436360802362681B031343636074
:10117000EB7900252365084C2900202220002562F8
:101180006562A562E56202F023FA044B280023633E
:1011900070BDC0460480044094000010B9100000E7
:1011A0004268044B04491343044A4360D36F0B4025
:1011B000D367704704000400FFFEFFFF0480044073
:1011C00010B5082204000021013002F001FA0123C9
:1011D00023700E33237210BDF7B51E000B00A03331
:1011E000DB00C3185B6804000193F300C318C1203F
:1011F0000F25C32780001858BF002840DB59403016
:10120000800000591D4063689C46042367463B43A9
:101210006360632A1CD90123019FF6181A00F74066
:101220008A4002301F4210D0236D13432365AB0068
:10123000E3181A00FC3250608022920098506368D4
:10124000FD3AFF3A93436360F7BD236D9343EDE7A7
:101250000023190001F0A0FC6422002301F0AEFB82
:10126000E5E7F7B5040045481500066A08AA01201D
:1012700012780193072E1CD88B040F009B0F022BB2
:1012800018D1F022019B92009B0113403200603282
:10129000D2000B43A21853600122384900204B6A48
:1012A0009A4033006033DB001A51099B1E600136FF
:1012B0000E62FEBD0921D940014205D0019B990172
:1012C000F0239B0019400F4301239A4219D1236850
:1012D00010001342EDD129498A6A072AE9D8930000
:1012E000E3181800ADB2FE3045808020800017431F
:1012F0001D5233006033DB00E31801325F608A6205
:10130000CAE7022A26D1226818001A42D1D11B4905
:10131000CA6A072ACDD83B00102713431F43930006
:10132000E3181800FE3040882D042843AC461D0009
:10133000FC356860802080001D5A6046054380208F
:1013400080001D5033006033DB00E31801325F6022
:10135000CA62A1E71800042AABD122681A42A8D0B9
:1013600006498A6A072AA4D89300E3181800FC30BB
:1013700045608020800017431D50BAE7940000109C
:10138000F0B51D00002387B004930593544B0E0065
:101390001B6A0400023341680292082B02D9012023
:1013A00007B0F0BD4909C9B20C98013101F06CF9E0
:1013B000029B012B08D162680F33134363606900FD
:1013C00001F062F9050006E0029B002BF7D129002D
:1013D00001F05AF9451EB278632A43D9AB1C039336
:1013E0000427802104AB2A00019349010023200037
:1013F0000097FFF736FF802105AB05000193200021
:101400000023039A00974901FFF72BFF2843C6D119
:1014100001221100049D6B46A94003911100A768A9
:101420001B7B3B43A3600D9B17001D60059D33781C
:10143000A9400D0071789F408C46DE0091422ED16C
:101440000299284A002918D1236DA619BB432365A8
:10145000A024E400335903990B433351B3582B4371
:10146000B3509DE700232800190001F095FB64228A
:10147000002301F0A3FA0390B2E7216DA6193943C6
:101480002165B1585B002943B15003219940626D39
:101490008A43614699400B001343636580E70299D4
:1014A00000290BD1236DA6193B4323650D4B0399EE
:1014B000F2581143A022F150D200CFE7216DA619B6
:1014C000B943A0272165FF00F1595B00294303259B
:1014D0009D409A40F151616DA9430A4362655FE7FF
:1014E0009400001004050000064B10B55C6A01234F
:1014F000C022A340C9004018920081580B4383507A
:1015000010BDC04694000010044A0120536A072B06
:1015100002D81B18002053627047C0469400001088
:10152000014B586A7047C0469400001070B5012402
:101530009440094ECB00C3189D5922002543A02496
:101540009D51E4001D5949002A431A5103238B4041
:10155000826D1343836570BD04050000F7B5040078
:10156000204D0092012901D004291CD1A96A012033
:10157000072917D880278E00A619BF00F25B4C34CC
:10158000944602009A4013006246884013439BB27F
:10159000F353238803439BB22380009B19600131DE
:1015A000A9620020FEBDE96A01200729FAD8802738
:1015B0008E00A619BF00F25B019202009A4013044C
:1015C000094A88401340019A00041343F351230051
:1015D0004C331B881843009BE06419600131E962B9
:1015E000DFE7C0469400001000F0FF0F014B9200AF
:1015F000995070479400001010B5024B02481B6BC5
:10160000984710BD9400001000400050074A0300A6
:101610000020934208D0064A0130934204D0054A84
:101620009818431E984102307047C046004006405B
:10163000008006400040F9BF30B5448C018C0300A7
:10164000A5B28AB2081B8C4202D9DB69D218501BA2
:1016500030BDF0B50B6905000C00012685B0002BEC
:1016600002D18E69731E9E4163680293AB68019339
:101670006B69019A039380235B001A420AD0AA681F
:10168000676A1343AB60002F04D021002800A36ACF
:101690003D4AB847002E24D0019BDB0721D56B467D
:1016A0001E7B2369002B3DD0E3681E702369013B3C
:1016B0002361E3680133E3602369002B11D1A3693F
:1016C000002B02D10223FF332B61230002222D3392
:1016D0001A70666A002E04D021002800A36A2B4AE3
:1016E000B047029B002B1BD00422019B134217D052
:1016F00023681B78EB616368013B636023680133F7
:1017000023606368002B0BD12A6122002C321370F6
:10171000666A002E04D021002800A36A1C4AB04744
:1017200005B0F0BDA369002BDBD02000FFF784FFDC
:10173000E369013B984207D1676A002F04D021007A
:101740002800A36A134AB8472000FFF775FFE26933
:10175000531E984205D1638C013393420CD1002370
:101760006384238CA269D654238CE26901339342AB
:1017700006D100232384B4E7638C01339BB2EFE7E7
:10178000238C01339BB2F5E7491600004716000091
:10179000461600004A160000CB6100230B844B84E0
:1017A0000223FF338A61C36070470B002D331B781F
:1017B000022B02D10223FF33036100230B848B61D0
:1017C000CB614B847047082310B582681A42FCD065
:1017D00001240368A3430360FFF718FF0349044A89
:1017E000095CD36F8C40A343D36710BDA83A0000B7
:1017F0000480044010B50C2204000021043001F0E4
:10180000E7FE96239B0123600123E37210BDF0B530
:10181000036887B005000C0001921B0507D5100076
:1018200000F032FF01382862002007B0F0BD0A2323
:1018300001270F26019A7F42534305930B01009322
:10184000039602970099059800F01EFFA023053823
:101850001B03984213D20A2100F016FF731C411C8F
:1018600059430490019800F00FFF231A844200D2DC
:10187000031B029A934202D2049F03960293009B99
:10188000013E1B1B0093072EDCD180235B029F428D
:1018900003D2039BAB622F62C6E70148C5E7C0468F
:1018A0004F160000F8B501260D0004001700FFF7E1
:1018B000ADFE3749CB6F31009C46364B1A5C033383
:1018C00091400A0061460A433149185CCA67FFF734
:1018D000DFFA8020AB79297A2A7B4902DB030B43AC
:1018E00000019102014030200B43697A9203090103
:1018F00001400B43A97A1030890101400B43E97A7A
:101900003438890001400B438021C9010A40134348
:101910006A7B8021824049010A40134329681E43A3
:101920002660002906D1EB79002B0BD163681A4A97
:1019300013400BE03A002000FFF769FF0028F2D0C7
:1019400016481FE0802362685B00134363606B7975
:10195000002B0FD0012322681343402223606368C9
:10196000934363602B79002B08D001232268134333
:10197000236006E0402362681343F2E763685B0676
:1019800001D40020F8BD012223689343F0E7C0464C
:1019900004800440A83A0000FFFEFFFF4F1600003D
:1019A000042310B58A18914205D1082382681A428F
:1019B000FCD0002010BD84681C42FCD00C780131A2
:1019C000C461F0E7F7B58B18019380238026802748
:1019D0009B01040001259C467600FF01019B994272
:1019E00001D10020FEBDA3682B42FCD0A268A368F1
:1019F0001343A360324212D110003840431E984175
:101A0000094B4042184063461A4200D0074812046E
:101A100007D40028E6D163690B700131DEE7044882
:101A2000E0E70448DEE7C0464D1600004C16000013
:101A30004E1600004B160000F8B50C001E001700F3
:101A4000FFF7E4FD302205000021200001F0C0FD79
:101A5000230002222D331A700022013B1A700A4B18
:101A6000AA00D450094A6762DA60094BA6625B5744
:101A7000002B06DB1F2213401E3A9A401300054A32
:101A800013600020F8BDC046C800001053160000C7
:101A9000AE3A000000E100E00B0010B52C331C78DA
:101AA000012C0ED0146852680C608A604A600122D2
:101AB0001A700423C36043683F329343436000209D
:101AC00010BD0148FCE7C046441600000423036132
:101AD00042683C331343436000234B602C310B704E
:101AE00070470B002C331B780620002B04D048686D
:101AF0008B681B1A002013607047F7B517000A00A7
:101B000001932D32137806000C00032B53D08B6900
:101B10007D68002B44D0012303610800FFF78CFD92
:101B20000090002808D0A84200D90095009BED1A2B
:101B30000023009A93420DD1002D1ED10123656A26
:101B4000F360002D26D1019B002B01D0009A1A6072
:101B50000020FEBD608CA269591C125C3868C2541A
:101B6000638CE0690133834203D1002363840B005B
:101B7000DFE7638C01339BB2F8E73B68009A9B1860
:101B8000E3607B682561636103232D342370023B8E
:101B9000F360D8E721003000A36A084AA847D2E7DB
:101BA00039686561E1600321256111700222FF320D
:101BB000C2600093C7E70248CBE7C0464716000063
:101BC000451600008B69002B02D10223FF3303610D
:101BD00000230B612D3102330B7070470B002D3346
:101BE0001B780620022B04D008694B691B1A0020C1
:101BF0001360704710B5034B0348DA6819689047C3
:101C000010BDC046C80000100040064010B5034B90
:101C10000348DA685968904710BDC046C8000010F4
:101C20000080064010B5034B0348DA689968904776
:101C300010BDC046C800001000C0064030B50C0002
:101C400085B005006846FFF7D5FD63680093237AE9
:101C5000022B02D0032B00D000236A465372637A12
:101C60006946013B5A4253416A469372A37A5A1E0F
:101C700093416A461371E37A5A1E93416A4653713F
:101C8000A07B074B80002268C058FFF70BFE00289E
:101C900003D1A37B2B7005B030BD0248FBE7C046E3
:101CA000B43A0000AF2F000010B50278034B920049
:101CB000D058FFF788FD002010BDC046B43A0000A0
:101CC0000078064B8000C05810B5FFF77BFE431E1E
:101CD0009841034B4042184010BDC046B43A000042
:101CE000AF2F000010B50078034B8000C058FFF7FD
:101CF00057FE002010BDC046B43A000000207047D7
:101D000000207047F7B51600002202700F6805002A
:101D1000974218D06132002B00D0203A01240A3AB1
:101D200001923800310000F035FD019B3A005B184C
:101D30000700092901D80B0030332B55631C96424C
:101D400005D9200002E0302343700120FEBD1C00B5
:101D5000E7E770B5060001200C0086B0824213D17F
:101D600002940024094D0193094B01A9287428000D
:101D700003938C818E73CC730C74FFF75FFF20008C
:101D8000044BAB60044BEB6006B070BDD800001094
:101D900000000101E51C0000C11C000010B5054C4D
:101DA000237C002B04D02000FFF77EFF0023237448
:101DB000002010BDD800001007B501900648037C34
:101DC000002B05D00122836801A9984701200EBD90
:101DD00001204042FBE7C046D8000010F0B5764B2A
:101DE00006001B7C0C0093B0002B00D1D6E0002530
:101DF0002F00089503953078002800D1D0E02528E1
:101E000029D0FFF7D9FF01360135F4E70A21019AFD
:101E1000029E4A43303A9B180193731C02937378D5
:101E20001A00303A092AF1D92E2B1AD00296029BB9
:101E30005E78782E0DD8632E19D800D17FE033005C
:101E4000463BDBB21C2B04D85C4A1A4101231A42E0
:101E500044D0300074E000230193DEE7029B01339D
:101E60000293029B5B78303B092BF7D9DFE7330005
:101E70000122643BDBB29A401300514A134200D066
:101E800091E0732E60D001221342E2D008CC0A22E6
:101E9000079307A9012309A8FFF734FF070009AB3F
:101EA0001B180393702E33D026D8622E26D06F2EA7
:101EB00024D03E00019BB3422FDC0199FA0FDB17BF
:101EC000B94253410022DBB2934200D0CA1B039BAC
:101ED000AD18002B31D1029E02368CE7582EE1D18D
:101EE00004CC0892102208A909A8FFF70BFF09AB40
:101EF0001B1807000393DCE7752EDAD108CC0A2201
:101F00000893702E07D8083A622E04D0063202E0F9
:101F1000102208CC08930123E5E72020FFF74CFFAF
:101F20000136C7E7013EFFF747FF30780028F9D1B7
:101F3000039B03965D19AD1BCDE7039EF5E701CC2E
:101F4000FFF73AFF0135C6E708CC0493002BC2D057
:101F5000180000F07DFD070006000590019BB342CC
:101F600017DC059B019A01990598D217DB0F814276
:101F700053410022DBB2934200D00A1A55192E00B9
:101F8000049B9B1B585D0028A5D0FFF715FF01356A
:101F9000F6E72020FFF710FF0136DFE701256D424D
:101FA000280013B0F0BD692E00D16FE7782E00D065
:101FB00078E7002394E7C046D8000010FEFFFBEF4F
:101FC000241812000FB407B504A901C90191FFF745
:101FD00005FF03B008BC04B0184713B50848037CDC
:101FE000002B02D10120404216BD6B46DC1D0122B0
:101FF0002100C36898470028F4D12078F4E7C04650
:10200000D80000100FB430B5154B89B01B7C002BE5
:1020100022D000240DAB019302AD2C70FFF7DDFF41
:10202000C0B228550D2801D00A2805D1002CF4D0C3
:1020300000232C19637004E00134142CEED100232A
:102040002B752800019A0C9900F010F9C0B209B064
:1020500030BC08BC04B0184701204042F7E7C04636
:10206000D800001003000120202B05D000200422FE
:10207000093BDBB29A424041704770B500250368C6
:1020800004001878FFF7EEFF012801D0280070BD8A
:10209000236801355A1C22605878F3E7F7B516001B
:1020A000002202700F680500974218D06132002BA1
:1020B00000D0203A01240A3A01923800310000F0A1
:1020C00069FB019B3A005B180700092901D80B0046
:1020D00030332B55631C964205D9200002E0302393
:1020E00043700120FEBD1C00E7E7F0B51F00002390
:1020F00006000C008FB00092029304933278002AFD
:1021000000D1ACE0252A2CD00123009802A9013689
:10211000B847F3E70A230E005D43303D5519727846
:10212000711C1300303B092BF4D92E2A1CD031002E
:102130000B005A7804201300019183430131682B6E
:10214000F6D0642A15D0692A13D0130020218B43BE
:10215000462B25D1072307349C430834019E0236C1
:10216000CCE70025DBE701314B78303B092BFAD96E
:10217000DEE723680A22039303A9012305A8FFF7DA
:102180008DFF202205AB1E182B1A009802A9B84714
:102190003278002A01D10434E0E70123013EF4E75C
:1021A000582B17D12368783A0493531E9A4104A9F7
:1021B000D3B205A81022FFF771FF202205AB1E182D
:1021C0002B1A009802A9B8473278002AE3D00123DD
:1021D000013EF6E711006239C9B213293DD8214802
:1021E0000123C840184214D1632A30D0732A34D155
:1021F0002668002ECFD0300000F02AFC20222B1AB7
:10220000009802A9B8473278002AC4D001230136C9
:10221000F6E72368702A04D10E210493124B5A5C0E
:1022200003E00A2204930E29F8D9012304A905A882
:10223000FFF734FF202205AB1E182B1A009802A9C5
:10224000B8473278002AA6D00123013EF6E704CC35
:10225000D2B2009802A9B84780E70123F9E70298B3
:102260000FB0F0BD01600800C03A0000F0B503787F
:102270008DB0039206910790002B00D138E1002326
:10228000019307E006A8FFF7F8FE051E0CD007A88B
:10229000FFF7F3FE069B1B78002B0DD0079B1C78E5
:1022A0000493002CEED107E0069B19785A785F1C46
:1022B000252904D094422CD001980DB0F0BD252AD8
:1022C000F8D0632304000697029300903E78002E16
:1022D00006D07C23234005937C231C421FD000267C
:1022E0000697012EE8D07C272740042F6ED10022CC
:1022F0000120039B02CB029CAC4261D1002A03D097
:10230000A446049A62440792019A0393013201920F
:10231000C0E7049A0233013207920693BAE7692EA6
:102320003FD012D8632E40D00BD8392E03D82F2E91
:1023300019D80126D4E7582EFBD120231C43103B8B
:102340002DE0642EF5D16C4C24E030006F38C3B220
:10235000092BEED80928ECD800F082F91EEBEBEB44
:102360002EEB1AEBEBEF01F0FBF9059B0A22036061
:1023700009A9380000F086FF060001F0F1F90368B2
:10238000002B00D10596099F059B013F029315E0A4
:1023900020231C430A2302E020231C43183B009304
:1023A0000CE020231C43059BF9E704231C43029BFC
:1023B000632B03D10123E9E708231C43013785E799
:1023C000049A525D4A550200013594E7082F2BD13B
:1023D000002607A8FFF751FE039F029B10CF079D21
:1023E0001B190293029B0395A3420ED1002E00D02D
:1023F000079500232370019B03970133019349E75D
:10240000009B012623700134ECE72B780093002B0E
:10241000ECD00098FFF726FE01350028F0D0002E02
:10242000E7D0039B0793E4E7202F00D044E707A8F9
:10243000FFF723FE079D009A2B78002A3AD10A3233
:102440000092302B36D16B780632BB430092582B6A
:1024500001D00823009301230493AD1928000795A8
:1024600000F0F6FA029B9B1B09AE83422ED2002796
:102470000B222900300001F0A9F9F77201F070F980
:10248000009A076008A9300000F0FCFE070001F088
:1024900067F90368002B00D00EE7089B9B1BEB1825
:1024A0000793049B039A5F4308CA03921F60019B32
:1024B0000133E5E62B2B06D02D2BCCD101235B423B
:1024C00001260493C9E701260496C6E701F048F9FE
:1024D000002331000360009A280000F0D3FE0700BB
:1024E00001F03EF90368002B00D0E5E6099BD7E731
:1024F00001204042E1E6C0462020000072B60748B5
:1025000080470749074A084B9B1A03DD043BC8581C
:10251000D050FBDC62B6054880470000DF070000B2
:10252000DC3C000000000010640000100D030000FF
:1025300025480047254800472548004725480047CB
:1025400025480047254800472548004725480047BB
:1025500025480047254800472548004725480047AB
:10256000254800472548004725480047254800479B
:10257000254800472548004725480047254800478B
:10258000254800472548004725480047254800477B
:10259000254800472548004725480047254800476B
:1025A000254800472548004725480047254800475B
:1025B000254800472548004725480047254800474B
:1025C00025480047254800473125000035250000F3
:1025D000392500003D25000041250000452500006B
:1025E000312500003125000031250000F51B0000D9
:1025F0000D1C0000251C00003125000031250000C5
:1026000031250000F91500003125000031250000BA
:102610003125000031250000312500003125000062
:102620003125000031250000312500003125000052
:102630003125000031250000312500003125000042
:102640003125000031250000312500003125000032
:102650003125000031250000312500003125000022
:1026600002B4714649084900095649008E4402BC2B
:102670007047C04602B4714649084900095C4900E8
:102680008E4402BC7047C046002243088B4274D37C
:1026900003098B425FD3030A8B4244D3030B8B4263
:1026A00028D3030C8B420DD3FF22090212BA030C6C
:1026B0008B4202D31212090265D0030B8B4219D34D
:1026C00000E0090AC30B8B4201D3CB03C01A52416D
:1026D000830B8B4201D38B03C01A5241430B8B42B5
:1026E00001D34B03C01A5241030B8B4201D30B039E
:1026F000C01A5241C30A8B4201D3CB02C01A5241C5
:10270000830A8B4201D38B02C01A5241430A8B4287
:1027100001D34B02C01A5241030A8B4201D30B0270
:10272000C01A5241CDD2C3098B4201D3CB01C01A8A
:10273000524183098B4201D38B01C01A5241430994
:102740008B4201D34B01C01A524103098B4201D382
:102750000B01C01A5241C3088B4201D3CB00C01AEF
:10276000524183088B4201D38B00C01A5241430867
:102770008B4201D34B00C01A5241411A00D201468C
:10278000524110467047FFE701B5002000F0F0F815
:1027900002BDC0460029F7D076E7704703460B43D9
:1027A0007FD4002243088B4274D303098B425FD34A
:1027B000030A8B4244D3030B8B4228D3030C8B4276
:1027C0000DD3FF22090212BA030C8B4202D312125C
:1027D000090265D0030B8B4219D300E0090AC30B31
:1027E0008B4201D3CB03C01A5241830B8B4201D3DE
:1027F0008B03C01A5241430B8B4201D34B03C01AC7
:102800005241030B8B4201D30B03C01A5241C30A3E
:102810008B4201D3CB02C01A5241830A8B4201D3AF
:102820008B02C01A5241430A8B4201D34B02C01A99
:102830005241030A8B4201D30B02C01A5241CDD23E
:10284000C3098B4201D3CB01C01A524183098B4289
:1028500001D38B01C01A524143098B4201D34B0172
:10286000C01A524103098B4201D30B01C01A5241D5
:10287000C3088B4201D3CB00C01A524183088B425C
:1028800001D38B00C01A524143088B4201D34B0045
:10289000C01A5241411A00D20146524110467047B7
:1028A0005DE0CA0F00D04942031000D340425340BC
:1028B00000229C4603098B422DD3030A8B4212D37C
:1028C000FC22890112BA030A8B420CD389019211AE
:1028D0008B4208D3890192118B4204D389013AD0EB
:1028E000921100E08909C3098B4201D3CB01C01AC0
:1028F000524183098B4201D38B01C01A52414309D3
:102900008B4201D34B01C01A524103098B4201D3C0
:102910000B01C01A5241C3088B4201D3CB00C01A2D
:10292000524183088B4201D38B00C01A5241D9D245
:1029300043088B4201D34B00C01A5241411A00D2C6
:102940000146634652415B10104601D34042002BC2
:1029500000D54942704763465B1000D3404201B541
:10296000002000F005F802BD0029F8D016E77047F6
:102970007047C046002B15D1002A13D1002906DB71
:1029800001DC002806D00020C043410802E080217D
:102990000906002007B4024801A14018029003BDB7
:1029A000D1FFFFFF03B4684601B5029800F0EEF9CD
:1029B000019B9E4602B00CBC7047C046002B11D153
:1029C000002A0FD1002900D1002802D00021C943DC
:1029D000080007B4024802A14018029003BDC04697
:1029E00091FFFFFF03B4684601B5029800F002F9B9
:1029F000019B9E4602B00CBC7047C04610B5002932
:102A000003D100F007F8203002E0080000F002F8DF
:102A100010BDC0461C2101231B04984201D3000CA9
:102A200010391B0A984201D3000A08391B09984241
:102A300001D30009043902A2105C40187047C04657
:102A40000403020201010101000000000000000077
:102A50000023C25C0133002AFBD1581E70470000DE
:102A60000448054B10B5834203D0044B002B00D023
:102A7000984710BD640000106400001000000000C2
:102A800006480749091A8B10C90FC91810B5491013
:102A900003D0044B002B00D0984710BD64000010F9
:102AA000640000100000000010B5074C2378002BD4
:102AB00009D1FFF7D5FF054B002B02D0044800E0F9
:102AC00000BF0123237010BDEC00001000000000C7
:102AD000B03C0000054B10B5002B03D0044905485D
:102AE00000E000BFFFF7CCFF10BDC04600000000B3
:102AF000F0000010B03C000070B5FDF755FDFDF78B
:102B0000EDFDFDF789FCFDF7EBFC1A48FFF75AFADB
:102B10008023194C5B00E26F184D1343E367FDF708
:102B200009FD8023E26F5B0413438E221021E367CB
:102B30009200AB5803208B43AB50FEF73FF80100E7
:102B40000F48FEF709FA002812D00E48FFF73AFAAC
:102B50000D48FDF78DFC0123094A516E0B43536666
:102B600080220A4B52021A600948FFF72BFAFEE74F
:102B70000848EBE72A3B0000048004400080044042
:102B800000C00140433B00006400001000E100E091
:102B9000753B00005B3B0000F0B5CE469946030C48
:102BA0009C46130447461B0C1D000E00614604049E
:102BB000240C80B50700100C4B4365434143604330
:102BC0002C0CC01824188C46A34203D980235B0226
:102BD0009846C444494679435643230C2D042D0C92
:102BE0008919634424046019C918C0BCB946B046A9
:102BF000F0BDC046F0B557464E464546DE46E0B508
:102C000004000D009246994683B08B4230D82DD0F7
:102C100049465046FFF7F2FE290006002000FFF764
:102C2000EDFE331A9846203B34D49B4653465A4611
:102C3000934042461F00534693401E00AF423BD88C
:102C4000AF4200D179E05B46A41BBD41002B00DA06
:102C500076E0002200230092019301235A4693401C
:102C60000193012342469340009329E08242CFD949
:102C700000220023009201930C9B002B01D01C60CA
:102C80005D600098019903B0F0BCBB46B246A9460E
:102C9000A046F0BD42469B4620239B1A5246DA408E
:102CA000414613004A468A40170042461F43534696
:102CB00093401E00AF42C3D900220023009201932B
:102CC0004346002BD8D0FB0772081A4346467B08C0
:102CD0000EE0AB4201D1A2420CD8A41A9D410120C2
:102CE00024196D410021013E24184D41002E06D0CB
:102CF000AB42EED9013E24196D41002EF8D1009867
:102D000001995B4600196941002B24DB2B005A46D0
:102D10004446D3402A00E2401C005B461500002BCD
:102D20002ADB26009E40330026004746BE40320084
:102D3000801A9941009001919EE7A342BCD882E796
:102D40004246202300219B1A002200910192012279
:102D5000DA40019285E7424620239B1A2A00464624
:102D60009A402300F340444613432A00E2401C00EB
:102D70005B461500002BD4DA42462F0020232600A4
:102D800097409B1ADE403B003343CDE7F8B5CE4673
:102D9000474680B59146984604000D0000F014F8AF
:102DA00007000E0002000B0048464146FFF7F4FE04
:102DB000241A8D41089B380031001C605D60C0BC46
:102DC000B946B046F8BDC046F0B5D6464F46464671
:102DD000C0B504000D001000190082B0002D00DA0B
:102DE00087E0002B0BDB16001F00AB4219D9002037
:102DF000002102B0E0BCBA46B146A846F0BD0027AB
:102E000046428F41AF4204D800D082E0A64200D8AB
:102E10007FE0002000218FE0002746428F419F4243
:102E2000E5D8AF4200D198E0002399463900300040
:102E3000FFF7E4FD804629002000FFF7DFFD434651
:102E40001B1A9846203B00D57CE0310099409A46F9
:102E50000B003100404681400A00AB425FD85CD095
:102E60005146A41A9D41002900DA93E00021002078
:102E700001260090019151468E400196414601265F
:102E80008E4041460096002950D0D90756080E437F
:102E90005F084146012200230CE0AF4201D1A64267
:102EA0000AD8A41BBD4124196D410139A4185D4104
:102EB000002906D0AF42F0D9013924196D4100290B
:102EC000F8D100980199534600196941002B48DB5D
:102ED0002E002C00DE404346DC405346002B50DBE6
:102EE00034009C4023004446A6403200801A994199
:102EF0001EE000236242AB4114001D0000298BDB61
:102F000006000F00994200D971E702D1904200D922
:102F10006DE701235B42994688E7A142A0D90021D1
:102F200000200090019141460029AED100980199FE
:102F30004B46002B00D15CE703000C0000215842F7
:102F4000A14156E7424638009A462023310090407E
:102F50009B1AD94003000B437BE7A64200D863E7E6
:102F600045E7424620239B1A2A009A402600130078
:102F70004246D6402C001E434346DC405346002BBD
:102F8000AEDA42462023350094409B1ADD402300F0
:102F90002B43A8E7414620260127761A002000216E
:102FA000F74000900191019768E7C046074B10B5C4
:102FB0000400002B02D0002100E000BF044B1B687E
:102FC000002B00D09847200000F04CFD00000000CE
:102FD0004802001010B5034B0100186800F030F8EB
:102FE00010BDC0461400001010B5034B0100186856
:102FF00000F0F6FB10BDC0461400001070B50F4E77
:103000000D0031680400002902D100F083FB30601C
:103010002900200000F07EFB431C03D101256D42F6
:10302000280070BD0323C51C9D43A842F8D0291A6F
:10303000200000F06FFB0130F2D1EFE70801001033
:10304000F7B50322CB1C9343083305001F000C2B5C
:1030500034D20C27B94233D8280000F071F8374E2B
:1030600033681C00002C2FD139002800FFF7C6FF61
:103070000400431C5FD134680094009B002B4AD1AC
:10308000002C52D023682800E3180099019300F027
:1030900041FB019B834248D123682800FF1A390075
:1030A000FFF7ACFF013040D02368DB1923603368A1
:1030B0005A68002A33D1009B336019E0002BC9DA2B
:1030C0000C232B600020FEBD2168C91B20D40B29D6
:1030D0000AD9E2192760A34204D132606368116003
:1030E000536005E05A60F9E76268A3420ED132608E
:1030F000280000F02DF8200007220B30231D9043FC
:10310000C21A9842DFD01B1AA350DCE75A60EFE7DF
:1031100023006468A6E7009C63680093ADE71A008B
:103120005B68A342FBD10023DAE70C2328002B6065
:1031300000F00EF8C6E70760DAE7C0460C010010A1
:1031400010B5024800F03BFB10BDC0465402001011
:1031500010B5024800F039FB10BDC0465402001003
:10316000F0B51E003E4B17000C009C46082285B0AF
:1031700003900091230061461D780134485D0100F1
:1031800011401042F6D12D2D12D125789C1C01231F
:10319000029310223300934316D1302D0ED12021FB
:1031A00023788B43582B09D16578023410260BE025
:1031B00002912B2DEDD125789C1CEAE7002EF5D14C
:1031C0000A36302D00D1023E012031004042FFF787
:1031D0005BFA0190012031004042FFF7DBFA002347
:1031E0000122180094462A00303A092A12D8150004
:1031F000AE421EDD5A1C0AD00123019A5B42824274
:1032000005D301D1A94211DB634670432818257804
:103210000134E8E72A00413A192A01D8373DE7E7A7
:103220002A00613A192A04D8573DE1E701235B429D
:10323000EDE75A1C07D12222039918000A60002FDB
:1032400009D105B0F0BD029A002A00D04042002FFB
:10325000F7D0002B01D0631E0093009B3B60F0E78A
:103260008B3B000010B5FFF77BFF10BD10B5044C81
:1032700013000A0001002068FFF772FF10BDC0466E
:103280001400001010B5044C13000A00010020685F
:10329000FFF766FF10BDC04614000010002310B5F4
:1032A000040003604360836081814366C2810361DF
:1032B00043618361190008225C3000F089F90B4BEF
:1032C000246263620A4BA3620A4BE3620A4B2363E4
:1032D0000A4B9C4205D00A4B9C4202D0094B9C42AF
:1032E00003D12000583000F066FA10BD35350000DB
:1032F0006135000099350000C5350000100100104F
:1033000078010010E001001010B5034A0349044899
:1033100000F0F4F810BDC04608000010813900002C
:103320001800001041680B4B10B50400994201D001
:1033300000F026FBA168084B994202D0200000F063
:103340001FFBE168054B994202D0200000F018FBFA
:1033500010BDC0461001001078010010E0010010FF
:103360004B6E10B5DB0705D48B899B0502D4886DA5
:1033700000F025FA002010BD4B6E10B5DB0705D418
:103380008B899B0502D4886D00F01FFA002010BDC8
:1033900010B5094B094A04211A6009480022FFF7B9
:1033A0007DFF012209210748FFF778FF0222122141
:1033B0000548FFF773FF10BD4802001009330000F5
:1033C0001001001078010010E001001010B5024853
:1033D00000F0F5F910BDC0465702001010B50248C4
:1033E00000F0F3F910BDC04657020010F8B5070011
:1033F000FFF7ECFF244B1B68002B01D1FFF7C8FF40
:10340000224EB4687368013B0FD53568002D38D162
:10341000D62138004900FFF713FE041E26D1306084
:10342000FFF7DCFF0C233B601CE00C22A55E002DA7
:103430001AD12000164B5830E360656600F0BBF9E6
:10344000FFF7CCFF2000082229002560A5606560F9
:1034500025616561A5615C3000F0BAF86563A5631C
:10346000A564E5642000F8BD6834CCE70423D022CD
:10347000056043600C302900A060520000F0A8F8FD
:1034800034603668BDE7C0464802001008000010EE
:103490000100FFFF10B50400FFF798FF236A002B1F
:1034A00002D0FFF79BFF10BD044B2362044B1B6847
:1034B000002BF6D1FFF76CFFF3E7C0462533000081
:1034C0004802001010B5FFF781FF0020024A0349AF
:1034D00000F014F810BDC046080000106133000071
:1034E00010B5044A0449002000F008F8FFF776FF01
:1034F00010BDC0460800001079330000F7B5140075
:10350000002600900191A5686768013F04D52468F2
:10351000002CF8D13000FEBDAB89012B08D90E225A
:10352000AB5E013304D029000098019B9847064305
:103530006835EAE770B50C000E25495F00F0D6F853
:10354000002803DB636D1B18636570BDA389024A05
:103550001340A381F9E7C046FFEFFFFF002070474B
:10356000F8B51F008B8905000C001600DB0505D59A
:103570000E23C95E0022022300F0A4F8A389054AA5
:1035800028001340A38132000E23E15E3B0000F0CF
:10359000D3F8F8BDFFEFFFFF70B50C000E25495FB3
:1035A00000F090F8A389421C03D1054A1340A3817F
:1035B00070BD802252011343A3816065F8E7C046C5
:1035C000FFEFFFFF10B50E23C95E00F009F810BD34
:1035D00003008218934200D1704719700133F9E754
:1035E000002370B5064D040008002B6000F00CFAB3
:1035F000431C03D12B68002B00D0236070BDC04654
:103600004C0200102E4B70B51B68040083424FD053
:10361000C369002B17D0DB68002B0DD00025E369B0
:10362000DB685959002944D10435802DF7D1E3696D
:103630002000D96800F0D4F8E3691968002902D0A5
:10364000200000F0CDF86169002902D0200000F0D0
:10365000C7F8E169002902D0200000F0C1F8216B11
:10366000002902D0200000F0BBF8616B002902D0D5
:10367000200000F0B5F8A16B002902D0200000F076
:10368000AFF8A16C002902D0200000F0A9F8616C0D
:10369000002902D0200000F0A3F8E16A002902D03E
:1036A000200000F09DF8236A002B01D020009847ED
:1036B00070BD0E68200000F093F83100B2E7C046FC
:1036C0001400001070B50400080011001A00002357
:1036D000054D2B6000F0A0F9431C03D12B68002B93
:1036E00000D0236070BDC0464C02001070B50400CD
:1036F000080011001A000023054D2B6000F094F91A
:10370000431C03D12B68002B00D0236070BDC04642
:103710004C020010002370B5064D040008002B6019
:1037200000F08AF9431C03D12B68002B00D02360E2
:1037300070BDC0464C02001070B5040008001100B6
:103740001A000023054D2B6000F084F9431C03D1BF
:103750002B68002B00D0236070BDC0464C020010C7
:10376000014B18687047C0461400001070B5002661
:103770000C4C0D4D641BA410A64209D1002600F08C
:1037800099FA0A4C0A4D641BA410A64205D170BDDB
:10379000B300EB5898470136EEE7B300EB58984773
:1037A0000136F2E7D43C0000D43C0000D83C0000D5
:1037B000D43C0000704770477047704770477047AF
:1037C000012070470120704770477047002310B5F3
:1037D0009A4200D110BDCC5CC4540133F8E700001C
:1037E00070B505000C1E10D0043C2368002B00DAD5
:1037F000E4182800FFF7A4FC1D4A1368002B05D12C
:10380000636014602800FFF7A3FC70BDA34208D9D1
:10381000206821188B42F3D119685B680918216070
:10382000EEE71A005B68002B01D0A342F9D91168BA
:103830005018A0420BD1206809185018116083421B
:10384000E0D118685B68411811605360DAE7A04264
:1038500002D90C232B60D5E7206821188B4203D1B5
:1038600019685B680918216063605460CAE7C04644
:103870000C010010F7B50C228B5E05000C001A0736
:1038800056D44A68002A02DC0A6C002A4EDDE76A38
:10389000002F4BD0002280202E682A601A004001A1
:1038A000216A0240034233D0626DA3895B0706D5CB
:1038B0006368D21A636B002B01D0236CD21A0023E9
:1038C0002800E76A216AB847A289431C06D1296803
:1038D0001D2946D8294BCB40DB0742D50023636026
:1038E00023692360D20405D5431C02D12B68002B29
:1038F00000D16065616B2E60002917D0230044332E
:10390000994202D02800FFF76BFF002363630DE0AC
:1039100001232800B8470200431CC6D12B68002BA6
:10392000C3D01D2B01D0162B1AD12E6000201EE013
:103930000E69002EFAD00F680E60BA1B01920022A9
:103940009B0700D14A69A260019B002BEEDDA36AB0
:1039500032001F002800019B216AB847002807DCBD
:10396000A2894023012013431BB2A3814042FEBD24
:10397000019B36181B1A0193E6E7C0460100402060
:103980000B6970B505000C00002B02D10025280042
:1039900070BD002804D0036A002B01D1FFF77AFD27
:1039A0000C22A35E002BF1D0626ED20704D49B05DB
:1039B00002D4A06DFFF703FF28002100FFF75AFF94
:1039C000636E0500DB07E2D4A3899B05DFD4A06DFD
:1039D000FFF7FBFEDBE70000010010B5002805D172
:1039E000054A06490648FFF789FD10BD054B1868D2
:1039F000FFF7C6FFF9E7C046080000108139000054
:103A0000180000101400001058220120014B404201
:103A10001A6070474C02001058220120014B4042AE
:103A20001A6070474C02001058220120014B40429E
:103A30001A6070474C020010044A03001068002806
:103A400002D0C318136070470148FAE7580200100B
:103A50006002001058220120014B40421A6070475A
:103A60004C020010FEE7C04600000000C02709001D
:103A700090051000C05C1500F0B31A00200B200068
:103A8000009F2400E0322900C0C62D00509731006D
:103A9000E06735007038390000093D0040164000ED
:103AA00080234300C03046000E0F100304050304BA
:103AB00005000000004006400080064000C00640AF
:103AC000020A0A0A0A0A0A0A0A0A0A0A0A08100064
:103AD0003E410C4111412741364103410641154108
:103AE0000F410E41264113412941024119410A412A
:103AF0000B41000050726573732041204B657920A3
:103B0000546F20537461727420436F6E76657273C4
:103B1000696F6E0043682564203D202564090043D9
:103B2000682564203D2025640A0041444320696ED5
:103B300074657272757074206578616D706C652E35
:103B40000D0A004144432043616C696272617469EB
:103B50006F6E20446F6E652E0D0A00414443204372
:103B6000616C6962726174696F6E204661696C652F
:103B7000642E0D0A00436F6E666967757261746921
:103B80006F6E20446F6E652E0A00002020202020DA
:103B900020202020282828282820202020202020FD
:103BA00020202020202020202020208810101010ED
:103BB0001010101010101010101010040404040441
:103BC000040404040410101010101010414141416D
:103BD0004141010101010101010101010101010155
:103BE0000101010101011010101010104242424267
:103BF0004242020202020202020202020202020225
:103C00000202020202021010101020000000000048
:103C100000000000000000000000000000000000A4
:103C20000000000000000000000000000000000094
:103C30000000000000000000000000000000000084
:103C40000000000000000000000000000000000074
:103C50000000000000000000000000000000000064
:103C60000000000000000000000000000000000054
:103C70000000000000000000000000000000000044
:103C80000000000000000000000000003E410C4168
:103C90001141274136410341064115410F410E4173
:103CA000264113412941024119410A410B410000BB
:103CB00000000000F8B5C046F8BC08BC9E4670473E
:0C3CC000F8B5C046F8BC08BC9E46704732
:083CCC0034C6FF7F0100000077
:043CD400D52A0000ED
:043CD800A92A000015
:103CDC00001BB70000000000000000000300000003
:103CEC00100100101800001000000000100100105E
:103CFC0078010010E001001000000000000000003E
:103D0C0000000000000000000000000000000000A7
:103D1C000000000000000000000000000000000097
:103D2C000000000000000000000000000000000087
:043D3C000000000083
:04000003000024FDD8
:00000001FF
